{
  "contractName": "BasicNFT",
  "abi": [
    {
      "inputs": [
        {
          "internalType": "string",
          "name": "_name",
          "type": "string"
        },
        {
          "internalType": "string",
          "name": "_symbol",
          "type": "string"
        }
      ],
      "stateMutability": "nonpayable",
      "type": "constructor"
    },
    {
      "anonymous": false,
      "inputs": [
        {
          "indexed": true,
          "internalType": "address",
          "name": "owner",
          "type": "address"
        },
        {
          "indexed": true,
          "internalType": "address",
          "name": "approved",
          "type": "address"
        },
        {
          "indexed": true,
          "internalType": "uint256",
          "name": "tokenId",
          "type": "uint256"
        }
      ],
      "name": "Approval",
      "type": "event"
    },
    {
      "anonymous": false,
      "inputs": [
        {
          "indexed": true,
          "internalType": "address",
          "name": "owner",
          "type": "address"
        },
        {
          "indexed": true,
          "internalType": "address",
          "name": "operator",
          "type": "address"
        },
        {
          "indexed": false,
          "internalType": "bool",
          "name": "approved",
          "type": "bool"
        }
      ],
      "name": "ApprovalForAll",
      "type": "event"
    },
    {
      "anonymous": false,
      "inputs": [
        {
          "indexed": true,
          "internalType": "address",
          "name": "previousOwner",
          "type": "address"
        },
        {
          "indexed": true,
          "internalType": "address",
          "name": "newOwner",
          "type": "address"
        }
      ],
      "name": "OwnershipTransferred",
      "type": "event"
    },
    {
      "anonymous": false,
      "inputs": [
        {
          "indexed": true,
          "internalType": "address",
          "name": "from",
          "type": "address"
        },
        {
          "indexed": true,
          "internalType": "address",
          "name": "to",
          "type": "address"
        },
        {
          "indexed": true,
          "internalType": "uint256",
          "name": "tokenId",
          "type": "uint256"
        }
      ],
      "name": "Transfer",
      "type": "event"
    },
    {
      "inputs": [
        {
          "internalType": "address",
          "name": "to",
          "type": "address"
        },
        {
          "internalType": "uint256",
          "name": "tokenId",
          "type": "uint256"
        }
      ],
      "name": "approve",
      "outputs": [],
      "stateMutability": "nonpayable",
      "type": "function"
    },
    {
      "inputs": [
        {
          "internalType": "address",
          "name": "owner",
          "type": "address"
        }
      ],
      "name": "balanceOf",
      "outputs": [
        {
          "internalType": "uint256",
          "name": "",
          "type": "uint256"
        }
      ],
      "stateMutability": "view",
      "type": "function",
      "constant": true
    },
    {
      "inputs": [
        {
          "internalType": "uint256",
          "name": "tokenId",
          "type": "uint256"
        }
      ],
      "name": "getApproved",
      "outputs": [
        {
          "internalType": "address",
          "name": "",
          "type": "address"
        }
      ],
      "stateMutability": "view",
      "type": "function",
      "constant": true
    },
    {
      "inputs": [
        {
          "internalType": "address",
          "name": "owner",
          "type": "address"
        },
        {
          "internalType": "address",
          "name": "operator",
          "type": "address"
        }
      ],
      "name": "isApprovedForAll",
      "outputs": [
        {
          "internalType": "bool",
          "name": "",
          "type": "bool"
        }
      ],
      "stateMutability": "view",
      "type": "function",
      "constant": true
    },
    {
      "inputs": [],
      "name": "name",
      "outputs": [
        {
          "internalType": "string",
          "name": "",
          "type": "string"
        }
      ],
      "stateMutability": "view",
      "type": "function",
      "constant": true
    },
    {
      "inputs": [],
      "name": "owner",
      "outputs": [
        {
          "internalType": "address",
          "name": "",
          "type": "address"
        }
      ],
      "stateMutability": "view",
      "type": "function",
      "constant": true
    },
    {
      "inputs": [
        {
          "internalType": "uint256",
          "name": "tokenId",
          "type": "uint256"
        }
      ],
      "name": "ownerOf",
      "outputs": [
        {
          "internalType": "address",
          "name": "",
          "type": "address"
        }
      ],
      "stateMutability": "view",
      "type": "function",
      "constant": true
    },
    {
      "inputs": [],
      "name": "renounceOwnership",
      "outputs": [],
      "stateMutability": "nonpayable",
      "type": "function"
    },
    {
      "inputs": [
        {
          "internalType": "address",
          "name": "from",
          "type": "address"
        },
        {
          "internalType": "address",
          "name": "to",
          "type": "address"
        },
        {
          "internalType": "uint256",
          "name": "tokenId",
          "type": "uint256"
        }
      ],
      "name": "safeTransferFrom",
      "outputs": [],
      "stateMutability": "nonpayable",
      "type": "function"
    },
    {
      "inputs": [
        {
          "internalType": "address",
          "name": "from",
          "type": "address"
        },
        {
          "internalType": "address",
          "name": "to",
          "type": "address"
        },
        {
          "internalType": "uint256",
          "name": "tokenId",
          "type": "uint256"
        },
        {
          "internalType": "bytes",
          "name": "data",
          "type": "bytes"
        }
      ],
      "name": "safeTransferFrom",
      "outputs": [],
      "stateMutability": "nonpayable",
      "type": "function"
    },
    {
      "inputs": [
        {
          "internalType": "address",
          "name": "operator",
          "type": "address"
        },
        {
          "internalType": "bool",
          "name": "approved",
          "type": "bool"
        }
      ],
      "name": "setApprovalForAll",
      "outputs": [],
      "stateMutability": "nonpayable",
      "type": "function"
    },
    {
      "inputs": [
        {
          "internalType": "bytes4",
          "name": "interfaceId",
          "type": "bytes4"
        }
      ],
      "name": "supportsInterface",
      "outputs": [
        {
          "internalType": "bool",
          "name": "",
          "type": "bool"
        }
      ],
      "stateMutability": "view",
      "type": "function",
      "constant": true
    },
    {
      "inputs": [],
      "name": "symbol",
      "outputs": [
        {
          "internalType": "string",
          "name": "",
          "type": "string"
        }
      ],
      "stateMutability": "view",
      "type": "function",
      "constant": true
    },
    {
      "inputs": [
        {
          "internalType": "uint256",
          "name": "index",
          "type": "uint256"
        }
      ],
      "name": "tokenByIndex",
      "outputs": [
        {
          "internalType": "uint256",
          "name": "",
          "type": "uint256"
        }
      ],
      "stateMutability": "view",
      "type": "function",
      "constant": true
    },
    {
      "inputs": [
        {
          "internalType": "address",
          "name": "owner",
          "type": "address"
        },
        {
          "internalType": "uint256",
          "name": "index",
          "type": "uint256"
        }
      ],
      "name": "tokenOfOwnerByIndex",
      "outputs": [
        {
          "internalType": "uint256",
          "name": "",
          "type": "uint256"
        }
      ],
      "stateMutability": "view",
      "type": "function",
      "constant": true
    },
    {
      "inputs": [
        {
          "internalType": "uint256",
          "name": "tokenId",
          "type": "uint256"
        }
      ],
      "name": "tokenURI",
      "outputs": [
        {
          "internalType": "string",
          "name": "",
          "type": "string"
        }
      ],
      "stateMutability": "view",
      "type": "function",
      "constant": true
    },
    {
      "inputs": [],
      "name": "totalSupply",
      "outputs": [
        {
          "internalType": "uint256",
          "name": "",
          "type": "uint256"
        }
      ],
      "stateMutability": "view",
      "type": "function",
      "constant": true
    },
    {
      "inputs": [
        {
          "internalType": "address",
          "name": "from",
          "type": "address"
        },
        {
          "internalType": "address",
          "name": "to",
          "type": "address"
        },
        {
          "internalType": "uint256",
          "name": "tokenId",
          "type": "uint256"
        }
      ],
      "name": "transferFrom",
      "outputs": [],
      "stateMutability": "nonpayable",
      "type": "function"
    },
    {
      "inputs": [
        {
          "internalType": "address",
          "name": "newOwner",
          "type": "address"
        }
      ],
      "name": "transferOwnership",
      "outputs": [],
      "stateMutability": "nonpayable",
      "type": "function"
    },
    {
      "inputs": [
        {
          "internalType": "address",
          "name": "to",
          "type": "address"
        },
        {
          "internalType": "uint256",
          "name": "tokenId",
          "type": "uint256"
        }
      ],
      "name": "mint",
      "outputs": [],
      "stateMutability": "nonpayable",
      "type": "function"
    },
    {
      "inputs": [
        {
          "internalType": "uint256",
          "name": "tokenId",
          "type": "uint256"
        }
      ],
      "name": "burn",
      "outputs": [],
      "stateMutability": "nonpayable",
      "type": "function"
    }
  ],
  "bytecode": "0x60806040523480156200001157600080fd5b5060405162003919380380620039198339818101604052810190620000379190620002e8565b818181600090816200004a9190620005b8565b5080600190816200005c9190620005b8565b5050506200007f620000736200008760201b60201c565b6200008f60201b60201c565b50506200069f565b600033905090565b6000600a60009054906101000a900473ffffffffffffffffffffffffffffffffffffffff16905081600a60006101000a81548173ffffffffffffffffffffffffffffffffffffffff021916908373ffffffffffffffffffffffffffffffffffffffff1602179055508173ffffffffffffffffffffffffffffffffffffffff168173ffffffffffffffffffffffffffffffffffffffff167f8be0079c531659141344cd1fd0a4f28419497f9722a3daafe3b4186f6b6457e060405160405180910390a35050565b6000604051905090565b600080fd5b600080fd5b600080fd5b600080fd5b6000601f19601f8301169050919050565b7f4e487b7100000000000000000000000000000000000000000000000000000000600052604160045260246000fd5b620001be8262000173565b810181811067ffffffffffffffff82111715620001e057620001df62000184565b5b80604052505050565b6000620001f562000155565b9050620002038282620001b3565b919050565b600067ffffffffffffffff82111562000226576200022562000184565b5b620002318262000173565b9050602081019050919050565b60005b838110156200025e57808201518184015260208101905062000241565b60008484015250505050565b6000620002816200027b8462000208565b620001e9565b905082815260208101848484011115620002a0576200029f6200016e565b5b620002ad8482856200023e565b509392505050565b600082601f830112620002cd57620002cc62000169565b5b8151620002df8482602086016200026a565b91505092915050565b600080604083850312156200030257620003016200015f565b5b600083015167ffffffffffffffff81111562000323576200032262000164565b5b6200033185828601620002b5565b925050602083015167ffffffffffffffff81111562000355576200035462000164565b5b6200036385828601620002b5565b9150509250929050565b600081519050919050565b7f4e487b7100000000000000000000000000000000000000000000000000000000600052602260045260246000fd5b60006002820490506001821680620003c057607f821691505b602082108103620003d657620003d562000378565b5b50919050565b60008190508160005260206000209050919050565b60006020601f8301049050919050565b600082821b905092915050565b600060088302620004407fffffffffffffffffffffffffffffffffffffffffffffffffffffffffffffffff8262000401565b6200044c868362000401565b95508019841693508086168417925050509392505050565b6000819050919050565b6000819050919050565b600062000499620004936200048d8462000464565b6200046e565b62000464565b9050919050565b6000819050919050565b620004b58362000478565b620004cd620004c482620004a0565b8484546200040e565b825550505050565b600090565b620004e4620004d5565b620004f1818484620004aa565b505050565b5b8181101562000519576200050d600082620004da565b600181019050620004f7565b5050565b601f82111562000568576200053281620003dc565b6200053d84620003f1565b810160208510156200054d578190505b620005656200055c85620003f1565b830182620004f6565b50505b505050565b600082821c905092915050565b60006200058d600019846008026200056d565b1980831691505092915050565b6000620005a883836200057a565b9150826002028217905092915050565b620005c3826200036d565b67ffffffffffffffff811115620005df57620005de62000184565b5b620005eb8254620003a7565b620005f88282856200051d565b600060209050601f8311600181146200063057600084156200061b578287015190505b6200062785826200059a565b86555062000697565b601f1984166200064086620003dc565b60005b828110156200066a5784890151825560018201915060208501945060208101905062000643565b868310156200068a578489015162000686601f8916826200057a565b8355505b6001600288020188555050505b505050505050565b61326a80620006af6000396000f3fe608060405234801561001057600080fd5b50600436106101375760003560e01c80634f6ccce7116100b857806395d89b411161007c57806395d89b411461034c578063a22cb4651461036a578063b88d4fde14610386578063c87b56dd146103a2578063e985e9c5146103d2578063f2fde38b1461040257610137565b80634f6ccce7146102945780636352211e146102c457806370a08231146102f4578063715018a6146103245780638da5cb5b1461032e57610137565b806323b872dd116100ff57806323b872dd146101f45780632f745c591461021057806340c10f191461024057806342842e0e1461025c57806342966c681461027857610137565b806301ffc9a71461013c57806306fdde031461016c578063081812fc1461018a578063095ea7b3146101ba57806318160ddd146101d6575b600080fd5b610156600480360381019061015191906121f1565b61041e565b6040516101639190612239565b60405180910390f35b610174610498565b60405161018191906122e4565b60405180910390f35b6101a4600480360381019061019f919061233c565b61052a565b6040516101b191906123aa565b60405180910390f35b6101d460048036038101906101cf91906123f1565b610570565b005b6101de610687565b6040516101eb9190612440565b60405180910390f35b61020e6004803603810190610209919061245b565b610694565b005b61022a600480360381019061022591906123f1565b6106f4565b6040516102379190612440565b60405180910390f35b61025a600480360381019061025591906123f1565b610799565b005b6102766004803603810190610271919061245b565b6107af565b005b610292600480360381019061028d919061233c565b6107cf565b005b6102ae60048036038101906102a9919061233c565b6107e3565b6040516102bb9190612440565b60405180910390f35b6102de60048036038101906102d9919061233c565b610854565b6040516102eb91906123aa565b60405180910390f35b61030e600480360381019061030991906124ae565b6108da565b60405161031b9190612440565b60405180910390f35b61032c610991565b005b6103366109a5565b60405161034391906123aa565b60405180910390f35b6103546109cf565b60405161036191906122e4565b60405180910390f35b610384600480360381019061037f9190612507565b610a61565b005b6103a0600480360381019061039b919061267c565b610a77565b005b6103bc60048036038101906103b7919061233c565b610ad9565b6040516103c991906122e4565b60405180910390f35b6103ec60048036038101906103e791906126ff565b610b41565b6040516103f99190612239565b60405180910390f35b61041c600480360381019061041791906124ae565b610bd5565b005b60007f780e9d63000000000000000000000000000000000000000000000000000000007bffffffffffffffffffffffffffffffffffffffffffffffffffffffff1916827bffffffffffffffffffffffffffffffffffffffffffffffffffffffff19161480610491575061049082610c58565b5b9050919050565b6060600080546104a79061276e565b80601f01602080910402602001604051908101604052809291908181526020018280546104d39061276e565b80156105205780601f106104f557610100808354040283529160200191610520565b820191906000526020600020905b81548152906001019060200180831161050357829003601f168201915b5050505050905090565b600061053582610d3a565b6004600083815260200190815260200160002060009054906101000a900473ffffffffffffffffffffffffffffffffffffffff169050919050565b600061057b82610854565b90508073ffffffffffffffffffffffffffffffffffffffff168373ffffffffffffffffffffffffffffffffffffffff16036105eb576040517f08c379a00000000000000000000000000000000000000000000000000000000081526004016105e290612811565b60405180910390fd5b8073ffffffffffffffffffffffffffffffffffffffff1661060a610d85565b73ffffffffffffffffffffffffffffffffffffffff161480610639575061063881610633610d85565b610b41565b5b610678576040517f08c379a000000000000000000000000000000000000000000000000000000000815260040161066f906128a3565b60405180910390fd5b6106828383610d8d565b505050565b6000600880549050905090565b6106a561069f610d85565b82610e46565b6106e4576040517f08c379a00000000000000000000000000000000000000000000000000000000081526004016106db90612935565b60405180910390fd5b6106ef838383610edb565b505050565b60006106ff836108da565b8210610740576040517f08c379a0000000000000000000000000000000000000000000000000000000008152600401610737906129c7565b60405180910390fd5b600660008473ffffffffffffffffffffffffffffffffffffffff1673ffffffffffffffffffffffffffffffffffffffff168152602001908152602001600020600083815260200190815260200160002054905092915050565b6107a16111d4565b6107ab8282611252565b5050565b6107ca83838360405180602001604052806000815250610a77565b505050565b6107d76111d4565b6107e08161146f565b50565b60006107ed610687565b821061082e576040517f08c379a000000000000000000000000000000000000000000000000000000000815260040161082590612a59565b60405180910390fd5b6008828154811061084257610841612a79565b5b90600052602060002001549050919050565b600080610860836115bd565b9050600073ffffffffffffffffffffffffffffffffffffffff168173ffffffffffffffffffffffffffffffffffffffff16036108d1576040517f08c379a00000000000000000000000000000000000000000000000000000000081526004016108c890612af4565b60405180910390fd5b80915050919050565b60008073ffffffffffffffffffffffffffffffffffffffff168273ffffffffffffffffffffffffffffffffffffffff160361094a576040517f08c379a000000000000000000000000000000000000000000000000000000000815260040161094190612b86565b60405180910390fd5b600360008373ffffffffffffffffffffffffffffffffffffffff1673ffffffffffffffffffffffffffffffffffffffff168152602001908152602001600020549050919050565b6109996111d4565b6109a360006115fa565b565b6000600a60009054906101000a900473ffffffffffffffffffffffffffffffffffffffff16905090565b6060600180546109de9061276e565b80601f0160208091040260200160405190810160405280929190818152602001828054610a0a9061276e565b8015610a575780601f10610a2c57610100808354040283529160200191610a57565b820191906000526020600020905b815481529060010190602001808311610a3a57829003601f168201915b5050505050905090565b610a73610a6c610d85565b83836116c0565b5050565b610a88610a82610d85565b83610e46565b610ac7576040517f08c379a0000000000000000000000000000000000000000000000000000000008152600401610abe90612935565b60405180910390fd5b610ad38484848461182c565b50505050565b6060610ae482610d3a565b6000610aee611888565b90506000815111610b0e5760405180602001604052806000815250610b39565b80610b188461189f565b604051602001610b29929190612be2565b6040516020818303038152906040525b915050919050565b6000600560008473ffffffffffffffffffffffffffffffffffffffff1673ffffffffffffffffffffffffffffffffffffffff16815260200190815260200160002060008373ffffffffffffffffffffffffffffffffffffffff1673ffffffffffffffffffffffffffffffffffffffff16815260200190815260200160002060009054906101000a900460ff16905092915050565b610bdd6111d4565b600073ffffffffffffffffffffffffffffffffffffffff168173ffffffffffffffffffffffffffffffffffffffff1603610c4c576040517f08c379a0000000000000000000000000000000000000000000000000000000008152600401610c4390612c78565b60405180910390fd5b610c55816115fa565b50565b60007f80ac58cd000000000000000000000000000000000000000000000000000000007bffffffffffffffffffffffffffffffffffffffffffffffffffffffff1916827bffffffffffffffffffffffffffffffffffffffffffffffffffffffff19161480610d2357507f5b5e139f000000000000000000000000000000000000000000000000000000007bffffffffffffffffffffffffffffffffffffffffffffffffffffffff1916827bffffffffffffffffffffffffffffffffffffffffffffffffffffffff1916145b80610d335750610d328261196d565b5b9050919050565b610d43816119d7565b610d82576040517f08c379a0000000000000000000000000000000000000000000000000000000008152600401610d7990612af4565b60405180910390fd5b50565b600033905090565b816004600083815260200190815260200160002060006101000a81548173ffffffffffffffffffffffffffffffffffffffff021916908373ffffffffffffffffffffffffffffffffffffffff160217905550808273ffffffffffffffffffffffffffffffffffffffff16610e0083610854565b73ffffffffffffffffffffffffffffffffffffffff167f8c5be1e5ebec7d5bd14f71427d1e84f3dd0314c0f7b2291e5b200ac8c7c3b92560405160405180910390a45050565b600080610e5283610854565b90508073ffffffffffffffffffffffffffffffffffffffff168473ffffffffffffffffffffffffffffffffffffffff161480610e945750610e938185610b41565b5b80610ed257508373ffffffffffffffffffffffffffffffffffffffff16610eba8461052a565b73ffffffffffffffffffffffffffffffffffffffff16145b91505092915050565b8273ffffffffffffffffffffffffffffffffffffffff16610efb82610854565b73ffffffffffffffffffffffffffffffffffffffff1614610f51576040517f08c379a0000000000000000000000000000000000000000000000000000000008152600401610f4890612d0a565b60405180910390fd5b600073ffffffffffffffffffffffffffffffffffffffff168273ffffffffffffffffffffffffffffffffffffffff1603610fc0576040517f08c379a0000000000000000000000000000000000000000000000000000000008152600401610fb790612d9c565b60405180910390fd5b610fcd8383836001611a18565b8273ffffffffffffffffffffffffffffffffffffffff16610fed82610854565b73ffffffffffffffffffffffffffffffffffffffff1614611043576040517f08c379a000000000000000000000000000000000000000000000000000000000815260040161103a90612d0a565b60405180910390fd5b6004600082815260200190815260200160002060006101000a81549073ffffffffffffffffffffffffffffffffffffffff02191690556001600360008573ffffffffffffffffffffffffffffffffffffffff1673ffffffffffffffffffffffffffffffffffffffff168152602001908152602001600020600082825403925050819055506001600360008473ffffffffffffffffffffffffffffffffffffffff1673ffffffffffffffffffffffffffffffffffffffff16815260200190815260200160002060008282540192505081905550816002600083815260200190815260200160002060006101000a81548173ffffffffffffffffffffffffffffffffffffffff021916908373ffffffffffffffffffffffffffffffffffffffff160217905550808273ffffffffffffffffffffffffffffffffffffffff168473ffffffffffffffffffffffffffffffffffffffff167fddf252ad1be2c89b69c2b068fc378daa952ba7f163c4a11628f55a4df523b3ef60405160405180910390a46111cf8383836001611b76565b505050565b6111dc610d85565b73ffffffffffffffffffffffffffffffffffffffff166111fa6109a5565b73ffffffffffffffffffffffffffffffffffffffff1614611250576040517f08c379a000000000000000000000000000000000000000000000000000000000815260040161124790612e08565b60405180910390fd5b565b600073ffffffffffffffffffffffffffffffffffffffff168273ffffffffffffffffffffffffffffffffffffffff16036112c1576040517f08c379a00000000000000000000000000000000000000000000000000000000081526004016112b890612e74565b60405180910390fd5b6112ca816119d7565b1561130a576040517f08c379a000000000000000000000000000000000000000000000000000000000815260040161130190612ee0565b60405180910390fd5b611318600083836001611a18565b611321816119d7565b15611361576040517f08c379a000000000000000000000000000000000000000000000000000000000815260040161135890612ee0565b60405180910390fd5b6001600360008473ffffffffffffffffffffffffffffffffffffffff1673ffffffffffffffffffffffffffffffffffffffff16815260200190815260200160002060008282540192505081905550816002600083815260200190815260200160002060006101000a81548173ffffffffffffffffffffffffffffffffffffffff021916908373ffffffffffffffffffffffffffffffffffffffff160217905550808273ffffffffffffffffffffffffffffffffffffffff16600073ffffffffffffffffffffffffffffffffffffffff167fddf252ad1be2c89b69c2b068fc378daa952ba7f163c4a11628f55a4df523b3ef60405160405180910390a461146b600083836001611b76565b5050565b600061147a82610854565b905061148a816000846001611a18565b61149382610854565b90506004600083815260200190815260200160002060006101000a81549073ffffffffffffffffffffffffffffffffffffffff02191690556001600360008373ffffffffffffffffffffffffffffffffffffffff1673ffffffffffffffffffffffffffffffffffffffff168152602001908152602001600020600082825403925050819055506002600083815260200190815260200160002060006101000a81549073ffffffffffffffffffffffffffffffffffffffff021916905581600073ffffffffffffffffffffffffffffffffffffffff168273ffffffffffffffffffffffffffffffffffffffff167fddf252ad1be2c89b69c2b068fc378daa952ba7f163c4a11628f55a4df523b3ef60405160405180910390a46115b9816000846001611b76565b5050565b60006002600083815260200190815260200160002060009054906101000a900473ffffffffffffffffffffffffffffffffffffffff169050919050565b6000600a60009054906101000a900473ffffffffffffffffffffffffffffffffffffffff16905081600a60006101000a81548173ffffffffffffffffffffffffffffffffffffffff021916908373ffffffffffffffffffffffffffffffffffffffff1602179055508173ffffffffffffffffffffffffffffffffffffffff168173ffffffffffffffffffffffffffffffffffffffff167f8be0079c531659141344cd1fd0a4f28419497f9722a3daafe3b4186f6b6457e060405160405180910390a35050565b8173ffffffffffffffffffffffffffffffffffffffff168373ffffffffffffffffffffffffffffffffffffffff160361172e576040517f08c379a000000000000000000000000000000000000000000000000000000000815260040161172590612f4c565b60405180910390fd5b80600560008573ffffffffffffffffffffffffffffffffffffffff1673ffffffffffffffffffffffffffffffffffffffff16815260200190815260200160002060008473ffffffffffffffffffffffffffffffffffffffff1673ffffffffffffffffffffffffffffffffffffffff16815260200190815260200160002060006101000a81548160ff0219169083151502179055508173ffffffffffffffffffffffffffffffffffffffff168373ffffffffffffffffffffffffffffffffffffffff167f17307eab39ab6107e8899845ad3d59bd9653f200f220920489ca2b5937696c318360405161181f9190612239565b60405180910390a3505050565b611837848484610edb565b61184384848484611b7c565b611882576040517f08c379a000000000000000000000000000000000000000000000000000000000815260040161187990612fde565b60405180910390fd5b50505050565b606060405180602001604052806000815250905090565b6060600060016118ae84611d03565b01905060008167ffffffffffffffff8111156118cd576118cc612551565b5b6040519080825280601f01601f1916602001820160405280156118ff5781602001600182028036833780820191505090505b509050600082602001820190505b600115611962578080600190039150507f3031323334353637383961626364656600000000000000000000000000000000600a86061a8153600a858161195657611955612ffe565b5b0494506000850361190d575b819350505050919050565b60007f01ffc9a7000000000000000000000000000000000000000000000000000000007bffffffffffffffffffffffffffffffffffffffffffffffffffffffff1916827bffffffffffffffffffffffffffffffffffffffffffffffffffffffff1916149050919050565b60008073ffffffffffffffffffffffffffffffffffffffff166119f9836115bd565b73ffffffffffffffffffffffffffffffffffffffff1614159050919050565b611a2484848484611e56565b6001811115611a68576040517f08c379a0000000000000000000000000000000000000000000000000000000008152600401611a5f9061309f565b60405180910390fd5b6000829050600073ffffffffffffffffffffffffffffffffffffffff168573ffffffffffffffffffffffffffffffffffffffff1603611aaf57611aaa81611e5c565b611aee565b8373ffffffffffffffffffffffffffffffffffffffff168573ffffffffffffffffffffffffffffffffffffffff1614611aed57611aec8582611ea5565b5b5b600073ffffffffffffffffffffffffffffffffffffffff168473ffffffffffffffffffffffffffffffffffffffff1603611b3057611b2b81612012565b611b6f565b8473ffffffffffffffffffffffffffffffffffffffff168473ffffffffffffffffffffffffffffffffffffffff1614611b6e57611b6d84826120e3565b5b5b5050505050565b50505050565b6000611b9d8473ffffffffffffffffffffffffffffffffffffffff16612162565b15611cf6578373ffffffffffffffffffffffffffffffffffffffff1663150b7a02611bc6610d85565b8786866040518563ffffffff1660e01b8152600401611be89493929190613114565b6020604051808303816000875af1925050508015611c2457506040513d601f19601f82011682018060405250810190611c219190613175565b60015b611ca6573d8060008114611c54576040519150601f19603f3d011682016040523d82523d6000602084013e611c59565b606091505b506000815103611c9e576040517f08c379a0000000000000000000000000000000000000000000000000000000008152600401611c9590612fde565b60405180910390fd5b805181602001fd5b63150b7a0260e01b7bffffffffffffffffffffffffffffffffffffffffffffffffffffffff1916817bffffffffffffffffffffffffffffffffffffffffffffffffffffffff191614915050611cfb565b600190505b949350505050565b600080600090507a184f03e93ff9f4daa797ed6e38ed64bf6a1f0100000000000000008310611d61577a184f03e93ff9f4daa797ed6e38ed64bf6a1f0100000000000000008381611d5757611d56612ffe565b5b0492506040810190505b6d04ee2d6d415b85acef81000000008310611d9e576d04ee2d6d415b85acef81000000008381611d9457611d93612ffe565b5b0492506020810190505b662386f26fc100008310611dcd57662386f26fc100008381611dc357611dc2612ffe565b5b0492506010810190505b6305f5e1008310611df6576305f5e1008381611dec57611deb612ffe565b5b0492506008810190505b6127108310611e1b576127108381611e1157611e10612ffe565b5b0492506004810190505b60648310611e3e5760648381611e3457611e33612ffe565b5b0492506002810190505b600a8310611e4d576001810190505b80915050919050565b50505050565b6008805490506009600083815260200190815260200160002081905550600881908060018154018082558091505060019003906000526020600020016000909190919091505550565b60006001611eb2846108da565b611ebc91906131d1565b9050600060076000848152602001908152602001600020549050818114611fa1576000600660008673ffffffffffffffffffffffffffffffffffffffff1673ffffffffffffffffffffffffffffffffffffffff168152602001908152602001600020600084815260200190815260200160002054905080600660008773ffffffffffffffffffffffffffffffffffffffff1673ffffffffffffffffffffffffffffffffffffffff168152602001908152602001600020600084815260200190815260200160002081905550816007600083815260200190815260200160002081905550505b6007600084815260200190815260200160002060009055600660008573ffffffffffffffffffffffffffffffffffffffff1673ffffffffffffffffffffffffffffffffffffffff16815260200190815260200160002060008381526020019081526020016000206000905550505050565b6000600160088054905061202691906131d1565b905060006009600084815260200190815260200160002054905060006008838154811061205657612055612a79565b5b90600052602060002001549050806008838154811061207857612077612a79565b5b9060005260206000200181905550816009600083815260200190815260200160002081905550600960008581526020019081526020016000206000905560088054806120c7576120c6613205565b5b6001900381819060005260206000200160009055905550505050565b60006120ee836108da565b905081600660008573ffffffffffffffffffffffffffffffffffffffff1673ffffffffffffffffffffffffffffffffffffffff168152602001908152602001600020600083815260200190815260200160002081905550806007600084815260200190815260200160002081905550505050565b6000808273ffffffffffffffffffffffffffffffffffffffff163b119050919050565b6000604051905090565b600080fd5b600080fd5b60007fffffffff0000000000000000000000000000000000000000000000000000000082169050919050565b6121ce81612199565b81146121d957600080fd5b50565b6000813590506121eb816121c5565b92915050565b6000602082840312156122075761220661218f565b5b6000612215848285016121dc565b91505092915050565b60008115159050919050565b6122338161221e565b82525050565b600060208201905061224e600083018461222a565b92915050565b600081519050919050565b600082825260208201905092915050565b60005b8381101561228e578082015181840152602081019050612273565b60008484015250505050565b6000601f19601f8301169050919050565b60006122b682612254565b6122c0818561225f565b93506122d0818560208601612270565b6122d98161229a565b840191505092915050565b600060208201905081810360008301526122fe81846122ab565b905092915050565b6000819050919050565b61231981612306565b811461232457600080fd5b50565b60008135905061233681612310565b92915050565b6000602082840312156123525761235161218f565b5b600061236084828501612327565b91505092915050565b600073ffffffffffffffffffffffffffffffffffffffff82169050919050565b600061239482612369565b9050919050565b6123a481612389565b82525050565b60006020820190506123bf600083018461239b565b92915050565b6123ce81612389565b81146123d957600080fd5b50565b6000813590506123eb816123c5565b92915050565b600080604083850312156124085761240761218f565b5b6000612416858286016123dc565b925050602061242785828601612327565b9150509250929050565b61243a81612306565b82525050565b60006020820190506124556000830184612431565b92915050565b6000806000606084860312156124745761247361218f565b5b6000612482868287016123dc565b9350506020612493868287016123dc565b92505060406124a486828701612327565b9150509250925092565b6000602082840312156124c4576124c361218f565b5b60006124d2848285016123dc565b91505092915050565b6124e48161221e565b81146124ef57600080fd5b50565b600081359050612501816124db565b92915050565b6000806040838503121561251e5761251d61218f565b5b600061252c858286016123dc565b925050602061253d858286016124f2565b9150509250929050565b600080fd5b600080fd5b7f4e487b7100000000000000000000000000000000000000000000000000000000600052604160045260246000fd5b6125898261229a565b810181811067ffffffffffffffff821117156125a8576125a7612551565b5b80604052505050565b60006125bb612185565b90506125c78282612580565b919050565b600067ffffffffffffffff8211156125e7576125e6612551565b5b6125f08261229a565b9050602081019050919050565b82818337600083830152505050565b600061261f61261a846125cc565b6125b1565b90508281526020810184848401111561263b5761263a61254c565b5b6126468482856125fd565b509392505050565b600082601f83011261266357612662612547565b5b813561267384826020860161260c565b91505092915050565b600080600080608085870312156126965761269561218f565b5b60006126a4878288016123dc565b94505060206126b5878288016123dc565b93505060406126c687828801612327565b925050606085013567ffffffffffffffff8111156126e7576126e6612194565b5b6126f38782880161264e565b91505092959194509250565b600080604083850312156127165761271561218f565b5b6000612724858286016123dc565b9250506020612735858286016123dc565b9150509250929050565b7f4e487b7100000000000000000000000000000000000000000000000000000000600052602260045260246000fd5b6000600282049050600182168061278657607f821691505b6020821081036127995761279861273f565b5b50919050565b7f4552433732313a20617070726f76616c20746f2063757272656e74206f776e6560008201527f7200000000000000000000000000000000000000000000000000000000000000602082015250565b60006127fb60218361225f565b91506128068261279f565b604082019050919050565b6000602082019050818103600083015261282a816127ee565b9050919050565b7f4552433732313a20617070726f76652063616c6c6572206973206e6f7420746f60008201527f6b656e206f776e6572206f7220617070726f76656420666f7220616c6c000000602082015250565b600061288d603d8361225f565b915061289882612831565b604082019050919050565b600060208201905081810360008301526128bc81612880565b9050919050565b7f4552433732313a2063616c6c6572206973206e6f7420746f6b656e206f776e6560008201527f72206f7220617070726f76656400000000000000000000000000000000000000602082015250565b600061291f602d8361225f565b915061292a826128c3565b604082019050919050565b6000602082019050818103600083015261294e81612912565b9050919050565b7f455243373231456e756d657261626c653a206f776e657220696e646578206f7560008201527f74206f6620626f756e6473000000000000000000000000000000000000000000602082015250565b60006129b1602b8361225f565b91506129bc82612955565b604082019050919050565b600060208201905081810360008301526129e0816129a4565b9050919050565b7f455243373231456e756d657261626c653a20676c6f62616c20696e646578206f60008201527f7574206f6620626f756e64730000000000000000000000000000000000000000602082015250565b6000612a43602c8361225f565b9150612a4e826129e7565b604082019050919050565b60006020820190508181036000830152612a7281612a36565b9050919050565b7f4e487b7100000000000000000000000000000000000000000000000000000000600052603260045260246000fd5b7f4552433732313a20696e76616c696420746f6b656e2049440000000000000000600082015250565b6000612ade60188361225f565b9150612ae982612aa8565b602082019050919050565b60006020820190508181036000830152612b0d81612ad1565b9050919050565b7f4552433732313a2061646472657373207a65726f206973206e6f74206120766160008201527f6c6964206f776e65720000000000000000000000000000000000000000000000602082015250565b6000612b7060298361225f565b9150612b7b82612b14565b604082019050919050565b60006020820190508181036000830152612b9f81612b63565b9050919050565b600081905092915050565b6000612bbc82612254565b612bc68185612ba6565b9350612bd6818560208601612270565b80840191505092915050565b6000612bee8285612bb1565b9150612bfa8284612bb1565b91508190509392505050565b7f4f776e61626c653a206e6577206f776e657220697320746865207a65726f206160008201527f6464726573730000000000000000000000000000000000000000000000000000602082015250565b6000612c6260268361225f565b9150612c6d82612c06565b604082019050919050565b60006020820190508181036000830152612c9181612c55565b9050919050565b7f4552433732313a207472616e736665722066726f6d20696e636f72726563742060008201527f6f776e6572000000000000000000000000000000000000000000000000000000602082015250565b6000612cf460258361225f565b9150612cff82612c98565b604082019050919050565b60006020820190508181036000830152612d2381612ce7565b9050919050565b7f4552433732313a207472616e7366657220746f20746865207a65726f2061646460008201527f7265737300000000000000000000000000000000000000000000000000000000602082015250565b6000612d8660248361225f565b9150612d9182612d2a565b604082019050919050565b60006020820190508181036000830152612db581612d79565b9050919050565b7f4f776e61626c653a2063616c6c6572206973206e6f7420746865206f776e6572600082015250565b6000612df260208361225f565b9150612dfd82612dbc565b602082019050919050565b60006020820190508181036000830152612e2181612de5565b9050919050565b7f4552433732313a206d696e7420746f20746865207a65726f2061646472657373600082015250565b6000612e5e60208361225f565b9150612e6982612e28565b602082019050919050565b60006020820190508181036000830152612e8d81612e51565b9050919050565b7f4552433732313a20746f6b656e20616c7265616479206d696e74656400000000600082015250565b6000612eca601c8361225f565b9150612ed582612e94565b602082019050919050565b60006020820190508181036000830152612ef981612ebd565b9050919050565b7f4552433732313a20617070726f766520746f2063616c6c657200000000000000600082015250565b6000612f3660198361225f565b9150612f4182612f00565b602082019050919050565b60006020820190508181036000830152612f6581612f29565b9050919050565b7f4552433732313a207472616e7366657220746f206e6f6e20455243373231526560008201527f63656976657220696d706c656d656e7465720000000000000000000000000000602082015250565b6000612fc860328361225f565b9150612fd382612f6c565b604082019050919050565b60006020820190508181036000830152612ff781612fbb565b9050919050565b7f4e487b7100000000000000000000000000000000000000000000000000000000600052601260045260246000fd5b7f455243373231456e756d657261626c653a20636f6e736563757469766520747260008201527f616e7366657273206e6f7420737570706f727465640000000000000000000000602082015250565b600061308960358361225f565b91506130948261302d565b604082019050919050565b600060208201905081810360008301526130b88161307c565b9050919050565b600081519050919050565b600082825260208201905092915050565b60006130e6826130bf565b6130f081856130ca565b9350613100818560208601612270565b6131098161229a565b840191505092915050565b6000608082019050613129600083018761239b565b613136602083018661239b565b6131436040830185612431565b818103606083015261315581846130db565b905095945050505050565b60008151905061316f816121c5565b92915050565b60006020828403121561318b5761318a61218f565b5b600061319984828501613160565b91505092915050565b7f4e487b7100000000000000000000000000000000000000000000000000000000600052601160045260246000fd5b60006131dc82612306565b91506131e783612306565b92508282039050818111156131ff576131fe6131a2565b5b92915050565b7f4e487b7100000000000000000000000000000000000000000000000000000000600052603160045260246000fdfea2646970667358221220ca8df9e4a62bbdc711686cb94021b0be5a8ea29309ad9582de42e18805fb6e1464736f6c63430008110033",
  "immutableReferences": {},
  "source": "// SPDX-License-Identifier: MIT\n// pragma solidity ^0.8.20;\npragma solidity ^0.8.8;\n\nimport \"@openzeppelin/contracts/token/ERC721/extensions/ERC721Enumerable.sol\";\nimport \"@openzeppelin/contracts/access/Ownable.sol\";\n\ncontract BasicNFT is ERC721Enumerable, Ownable {\n\n    constructor(string memory _name, string memory _symbol) ERC721(_name, _symbol) Ownable(){}\n\n    // Mint a new NFT\n    function mint(address to, uint256 tokenId) external onlyOwner {\n        _mint(to, tokenId);\n    }\n\n    // Burn an existing NFT\n    function burn(uint256 tokenId) external onlyOwner {\n        _burn(tokenId);\n    }\n}\n",
  "sourcePath": "/Users/master/Documents/PersonalDev/sideProjects/lending-platform/contracts/BasicNFT.sol",
  "compiler": {
    "name": "solc",
    "version": "0.8.17+commit.8df45f5f.Emscripten.clang"
  },
  "schemaVersion": "3.4.16",
  "updatedAt": "2023-10-28T00:44:15.461Z",
  "networkType": "ethereum",
  "devdoc": {
    "kind": "dev",
    "methods": {
      "approve(address,uint256)": {
        "details": "See {IERC721-approve}."
      },
      "balanceOf(address)": {
        "details": "See {IERC721-balanceOf}."
      },
      "getApproved(uint256)": {
        "details": "See {IERC721-getApproved}."
      },
      "isApprovedForAll(address,address)": {
        "details": "See {IERC721-isApprovedForAll}."
      },
      "name()": {
        "details": "See {IERC721Metadata-name}."
      },
      "owner()": {
        "details": "Returns the address of the current owner."
      },
      "ownerOf(uint256)": {
        "details": "See {IERC721-ownerOf}."
      },
      "renounceOwnership()": {
        "details": "Leaves the contract without owner. It will not be possible to call `onlyOwner` functions. Can only be called by the current owner. NOTE: Renouncing ownership will leave the contract without an owner, thereby disabling any functionality that is only available to the owner."
      },
      "safeTransferFrom(address,address,uint256)": {
        "details": "See {IERC721-safeTransferFrom}."
      },
      "safeTransferFrom(address,address,uint256,bytes)": {
        "details": "See {IERC721-safeTransferFrom}."
      },
      "setApprovalForAll(address,bool)": {
        "details": "See {IERC721-setApprovalForAll}."
      },
      "supportsInterface(bytes4)": {
        "details": "See {IERC165-supportsInterface}."
      },
      "symbol()": {
        "details": "See {IERC721Metadata-symbol}."
      },
      "tokenByIndex(uint256)": {
        "details": "See {IERC721Enumerable-tokenByIndex}."
      },
      "tokenOfOwnerByIndex(address,uint256)": {
        "details": "See {IERC721Enumerable-tokenOfOwnerByIndex}."
      },
      "tokenURI(uint256)": {
        "details": "See {IERC721Metadata-tokenURI}."
      },
      "totalSupply()": {
        "details": "See {IERC721Enumerable-totalSupply}."
      },
      "transferFrom(address,address,uint256)": {
        "details": "See {IERC721-transferFrom}."
      },
      "transferOwnership(address)": {
        "details": "Transfers ownership of the contract to a new account (`newOwner`). Can only be called by the current owner."
      }
    },
    "version": 1
  },
  "userdoc": {
    "kind": "user",
    "methods": {},
    "version": 1
  }
}