{
  "contractName": "CollateralizedLending",
  "abi": [
    {
      "inputs": [
        {
          "internalType": "address",
          "name": "_token",
          "type": "address"
        },
        {
          "internalType": "address",
          "name": "_nftToken",
          "type": "address"
        },
        {
          "internalType": "address",
          "name": "_initialOwner",
          "type": "address"
        }
      ],
      "stateMutability": "nonpayable",
      "type": "constructor"
    },
    {
      "inputs": [
        {
          "internalType": "address",
          "name": "owner",
          "type": "address"
        }
      ],
      "name": "OwnableInvalidOwner",
      "type": "error"
    },
    {
      "inputs": [
        {
          "internalType": "address",
          "name": "account",
          "type": "address"
        }
      ],
      "name": "OwnableUnauthorizedAccount",
      "type": "error"
    },
    {
      "anonymous": false,
      "inputs": [
        {
          "indexed": true,
          "internalType": "uint256",
          "name": "loanId",
          "type": "uint256"
        },
        {
          "indexed": true,
          "internalType": "address",
          "name": "borrower",
          "type": "address"
        },
        {
          "indexed": true,
          "internalType": "uint256",
          "name": "nftId",
          "type": "uint256"
        },
        {
          "indexed": false,
          "internalType": "uint256",
          "name": "loanAmount",
          "type": "uint256"
        }
      ],
      "name": "LoanCreated",
      "type": "event"
    },
    {
      "anonymous": false,
      "inputs": [
        {
          "indexed": true,
          "internalType": "uint256",
          "name": "loanId",
          "type": "uint256"
        },
        {
          "indexed": true,
          "internalType": "address",
          "name": "borrower",
          "type": "address"
        },
        {
          "indexed": false,
          "internalType": "uint256",
          "name": "loanAmount",
          "type": "uint256"
        }
      ],
      "name": "LoanRepaid",
      "type": "event"
    },
    {
      "anonymous": false,
      "inputs": [
        {
          "indexed": true,
          "internalType": "address",
          "name": "previousOwner",
          "type": "address"
        },
        {
          "indexed": true,
          "internalType": "address",
          "name": "newOwner",
          "type": "address"
        }
      ],
      "name": "OwnershipTransferred",
      "type": "event"
    },
    {
      "inputs": [
        {
          "internalType": "uint256",
          "name": "",
          "type": "uint256"
        }
      ],
      "name": "loans",
      "outputs": [
        {
          "internalType": "address",
          "name": "borrower",
          "type": "address"
        },
        {
          "internalType": "uint256",
          "name": "nftId",
          "type": "uint256"
        },
        {
          "internalType": "uint256",
          "name": "loanAmount",
          "type": "uint256"
        },
        {
          "internalType": "uint256",
          "name": "duration",
          "type": "uint256"
        },
        {
          "internalType": "uint256",
          "name": "startTime",
          "type": "uint256"
        }
      ],
      "stateMutability": "view",
      "type": "function"
    },
    {
      "inputs": [],
      "name": "nftToken",
      "outputs": [
        {
          "internalType": "contract IERC721",
          "name": "",
          "type": "address"
        }
      ],
      "stateMutability": "view",
      "type": "function"
    },
    {
      "inputs": [],
      "name": "owner",
      "outputs": [
        {
          "internalType": "address",
          "name": "",
          "type": "address"
        }
      ],
      "stateMutability": "view",
      "type": "function"
    },
    {
      "inputs": [],
      "name": "renounceOwnership",
      "outputs": [],
      "stateMutability": "nonpayable",
      "type": "function"
    },
    {
      "inputs": [],
      "name": "token",
      "outputs": [
        {
          "internalType": "contract IERC20",
          "name": "",
          "type": "address"
        }
      ],
      "stateMutability": "view",
      "type": "function"
    },
    {
      "inputs": [
        {
          "internalType": "address",
          "name": "newOwner",
          "type": "address"
        }
      ],
      "name": "transferOwnership",
      "outputs": [],
      "stateMutability": "nonpayable",
      "type": "function"
    },
    {
      "inputs": [
        {
          "internalType": "uint256",
          "name": "_nftId",
          "type": "uint256"
        },
        {
          "internalType": "uint256",
          "name": "_loanAmount",
          "type": "uint256"
        },
        {
          "internalType": "uint256",
          "name": "_duration",
          "type": "uint256"
        }
      ],
      "name": "createLoan",
      "outputs": [],
      "stateMutability": "nonpayable",
      "type": "function"
    },
    {
      "inputs": [
        {
          "internalType": "uint256",
          "name": "_loanId",
          "type": "uint256"
        }
      ],
      "name": "repayLoan",
      "outputs": [],
      "stateMutability": "nonpayable",
      "type": "function"
    },
    {
      "inputs": [],
      "name": "getLoanCount",
      "outputs": [
        {
          "internalType": "uint256",
          "name": "",
          "type": "uint256"
        }
      ],
      "stateMutability": "view",
      "type": "function"
    }
  ],
  "bytecode": "0x608060405234801562000010575f80fd5b50604051620014f9380380620014f983398181016040528101906200003691906200026b565b805f73ffffffffffffffffffffffffffffffffffffffff168173ffffffffffffffffffffffffffffffffffffffff1603620000aa575f6040517f1e4fbdf7000000000000000000000000000000000000000000000000000000008152600401620000a19190620002d5565b60405180910390fd5b620000bb816200014560201b60201c565b508260015f6101000a81548173ffffffffffffffffffffffffffffffffffffffff021916908373ffffffffffffffffffffffffffffffffffffffff1602179055508160025f6101000a81548173ffffffffffffffffffffffffffffffffffffffff021916908373ffffffffffffffffffffffffffffffffffffffff160217905550505050620002f0565b5f805f9054906101000a900473ffffffffffffffffffffffffffffffffffffffff169050815f806101000a81548173ffffffffffffffffffffffffffffffffffffffff021916908373ffffffffffffffffffffffffffffffffffffffff1602179055508173ffffffffffffffffffffffffffffffffffffffff168173ffffffffffffffffffffffffffffffffffffffff167f8be0079c531659141344cd1fd0a4f28419497f9722a3daafe3b4186f6b6457e060405160405180910390a35050565b5f80fd5b5f73ffffffffffffffffffffffffffffffffffffffff82169050919050565b5f62000235826200020a565b9050919050565b620002478162000229565b811462000252575f80fd5b50565b5f8151905062000265816200023c565b92915050565b5f805f6060848603121562000285576200028462000206565b5b5f620002948682870162000255565b9350506020620002a78682870162000255565b9250506040620002ba8682870162000255565b9150509250925092565b620002cf8162000229565b82525050565b5f602082019050620002ea5f830184620002c4565b92915050565b6111fb80620002fe5f395ff3fe608060405234801561000f575f80fd5b5060043610610091575f3560e01c8063ab7b1c8911610064578063ab7b1c89146100f7578063d06fcba814610113578063e1ec3c6814610131578063f2fde38b14610165578063fc0c546a1461018157610091565b80635219681214610095578063715018a6146100b35780638da5cb5b146100bd578063904b513b146100db575b5f80fd5b61009d61019f565b6040516100aa9190610b6c565b60405180910390f35b6100bb6101ab565b005b6100c56101be565b6040516100d29190610bc4565b60405180910390f35b6100f560048036038101906100f09190610c0b565b6101e5565b005b610111600480360381019061010c9190610c5b565b610595565b005b61011b6108d7565b6040516101289190610ce1565b60405180910390f35b61014b60048036038101906101469190610c5b565b6108fc565b60405161015c959493929190610cfa565b60405180910390f35b61017f600480360381019061017a9190610d75565b61095c565b005b6101896109e0565b6040516101969190610dc0565b60405180910390f35b5f600380549050905090565b6101b3610a05565b6101bc5f610a8c565b565b5f805f9054906101000a900473ffffffffffffffffffffffffffffffffffffffff16905090565b3373ffffffffffffffffffffffffffffffffffffffff1660025f9054906101000a900473ffffffffffffffffffffffffffffffffffffffff1673ffffffffffffffffffffffffffffffffffffffff16636352211e856040518263ffffffff1660e01b81526004016102569190610b6c565b602060405180830381865afa158015610271573d5f803e3d5ffd5b505050506040513d601f19601f820116820180604052508101906102959190610ded565b73ffffffffffffffffffffffffffffffffffffffff16146102eb576040517f08c379a00000000000000000000000000000000000000000000000000000000081526004016102e290610e72565b60405180910390fd5b5f821161032d576040517f08c379a000000000000000000000000000000000000000000000000000000000815260040161032490610f00565b60405180910390fd5b60025f9054906101000a900473ffffffffffffffffffffffffffffffffffffffff1673ffffffffffffffffffffffffffffffffffffffff166323b872dd3330866040518463ffffffff1660e01b815260040161038b93929190610f1e565b5f604051808303815f87803b1580156103a2575f80fd5b505af11580156103b4573d5f803e3d5ffd5b5050505060015f9054906101000a900473ffffffffffffffffffffffffffffffffffffffff1673ffffffffffffffffffffffffffffffffffffffff166323b872dd6103fd6101be565b33856040518463ffffffff1660e01b815260040161041d93929190610f1e565b6020604051808303815f875af1158015610439573d5f803e3d5ffd5b505050506040513d601f19601f8201168201806040525081019061045d9190610f88565b505f60038054905090505f42905060036040518060a001604052803373ffffffffffffffffffffffffffffffffffffffff16815260200187815260200186815260200185815260200183815250908060018154018082558091505060019003905f5260205f2090600502015f909190919091505f820151815f015f6101000a81548173ffffffffffffffffffffffffffffffffffffffff021916908373ffffffffffffffffffffffffffffffffffffffff160217905550602082015181600101556040820151816002015560608201518160030155608082015181600401555050843373ffffffffffffffffffffffffffffffffffffffff16837f3373919ad665425d2cddb4072830e5935b6ee308440fa99b23383648da473bc0876040516105869190610b6c565b60405180910390a45050505050565b60038054905081106105dc576040517f08c379a00000000000000000000000000000000000000000000000000000000081526004016105d390610ffd565b60405180910390fd5b5f600382815481106105f1576105f061101b565b5b905f5260205f2090600502019050805f015f9054906101000a900473ffffffffffffffffffffffffffffffffffffffff1673ffffffffffffffffffffffffffffffffffffffff163373ffffffffffffffffffffffffffffffffffffffff161461068f576040517f08c379a0000000000000000000000000000000000000000000000000000000008152600401610686906110b8565b60405180910390fd5b806003015481600401546106a39190611103565b4210156106e5576040517f08c379a00000000000000000000000000000000000000000000000000000000081526004016106dc90611180565b60405180910390fd5b60025f9054906101000a900473ffffffffffffffffffffffffffffffffffffffff1673ffffffffffffffffffffffffffffffffffffffff166323b872dd303384600101546040518463ffffffff1660e01b815260040161074793929190610f1e565b5f604051808303815f87803b15801561075e575f80fd5b505af1158015610770573d5f803e3d5ffd5b5050505060015f9054906101000a900473ffffffffffffffffffffffffffffffffffffffff1673ffffffffffffffffffffffffffffffffffffffff1663a9059cbb6107b96101be565b83600201546040518363ffffffff1660e01b81526004016107db92919061119e565b6020604051808303815f875af11580156107f7573d5f803e3d5ffd5b505050506040513d601f19601f8201168201806040525081019061081b9190610f88565b50600382815481106108305761082f61101b565b5b905f5260205f2090600502015f8082015f6101000a81549073ffffffffffffffffffffffffffffffffffffffff0219169055600182015f9055600282015f9055600382015f9055600482015f905550503373ffffffffffffffffffffffffffffffffffffffff16827f512d3e65b3e58c2187bb1872aa435dba5bd09c1c03823ba56ab70aac411e4a2183600201546040516108cb9190610b6c565b60405180910390a35050565b60025f9054906101000a900473ffffffffffffffffffffffffffffffffffffffff1681565b6003818154811061090b575f80fd5b905f5260205f2090600502015f91509050805f015f9054906101000a900473ffffffffffffffffffffffffffffffffffffffff16908060010154908060020154908060030154908060040154905085565b610964610a05565b5f73ffffffffffffffffffffffffffffffffffffffff168173ffffffffffffffffffffffffffffffffffffffff16036109d4575f6040517f1e4fbdf70000000000000000000000000000000000000000000000000000000081526004016109cb9190610bc4565b60405180910390fd5b6109dd81610a8c565b50565b60015f9054906101000a900473ffffffffffffffffffffffffffffffffffffffff1681565b610a0d610b4d565b73ffffffffffffffffffffffffffffffffffffffff16610a2b6101be565b73ffffffffffffffffffffffffffffffffffffffff1614610a8a57610a4e610b4d565b6040517f118cdaa7000000000000000000000000000000000000000000000000000000008152600401610a819190610bc4565b60405180910390fd5b565b5f805f9054906101000a900473ffffffffffffffffffffffffffffffffffffffff169050815f806101000a81548173ffffffffffffffffffffffffffffffffffffffff021916908373ffffffffffffffffffffffffffffffffffffffff1602179055508173ffffffffffffffffffffffffffffffffffffffff168173ffffffffffffffffffffffffffffffffffffffff167f8be0079c531659141344cd1fd0a4f28419497f9722a3daafe3b4186f6b6457e060405160405180910390a35050565b5f33905090565b5f819050919050565b610b6681610b54565b82525050565b5f602082019050610b7f5f830184610b5d565b92915050565b5f73ffffffffffffffffffffffffffffffffffffffff82169050919050565b5f610bae82610b85565b9050919050565b610bbe81610ba4565b82525050565b5f602082019050610bd75f830184610bb5565b92915050565b5f80fd5b610bea81610b54565b8114610bf4575f80fd5b50565b5f81359050610c0581610be1565b92915050565b5f805f60608486031215610c2257610c21610bdd565b5b5f610c2f86828701610bf7565b9350506020610c4086828701610bf7565b9250506040610c5186828701610bf7565b9150509250925092565b5f60208284031215610c7057610c6f610bdd565b5b5f610c7d84828501610bf7565b91505092915050565b5f819050919050565b5f610ca9610ca4610c9f84610b85565b610c86565b610b85565b9050919050565b5f610cba82610c8f565b9050919050565b5f610ccb82610cb0565b9050919050565b610cdb81610cc1565b82525050565b5f602082019050610cf45f830184610cd2565b92915050565b5f60a082019050610d0d5f830188610bb5565b610d1a6020830187610b5d565b610d276040830186610b5d565b610d346060830185610b5d565b610d416080830184610b5d565b9695505050505050565b610d5481610ba4565b8114610d5e575f80fd5b50565b5f81359050610d6f81610d4b565b92915050565b5f60208284031215610d8a57610d89610bdd565b5b5f610d9784828501610d61565b91505092915050565b5f610daa82610cb0565b9050919050565b610dba81610da0565b82525050565b5f602082019050610dd35f830184610db1565b92915050565b5f81519050610de781610d4b565b92915050565b5f60208284031215610e0257610e01610bdd565b5b5f610e0f84828501610dd9565b91505092915050565b5f82825260208201905092915050565b7f596f7520646f206e6f74206f776e2074686973204e46540000000000000000005f82015250565b5f610e5c601783610e18565b9150610e6782610e28565b602082019050919050565b5f6020820190508181035f830152610e8981610e50565b9050919050565b7f4c6f616e20616d6f756e74206d7573742062652067726561746572207468616e5f8201527f2030000000000000000000000000000000000000000000000000000000000000602082015250565b5f610eea602283610e18565b9150610ef582610e90565b604082019050919050565b5f6020820190508181035f830152610f1781610ede565b9050919050565b5f606082019050610f315f830186610bb5565b610f3e6020830185610bb5565b610f4b6040830184610b5d565b949350505050565b5f8115159050919050565b610f6781610f53565b8114610f71575f80fd5b50565b5f81519050610f8281610f5e565b92915050565b5f60208284031215610f9d57610f9c610bdd565b5b5f610faa84828501610f74565b91505092915050565b7f496e76616c6964206c6f616e20494400000000000000000000000000000000005f82015250565b5f610fe7600f83610e18565b9150610ff282610fb3565b602082019050919050565b5f6020820190508181035f83015261101481610fdb565b9050919050565b7f4e487b71000000000000000000000000000000000000000000000000000000005f52603260045260245ffd5b7f4f6e6c792074686520626f72726f7765722063616e20726570617920746865205f8201527f6c6f616e00000000000000000000000000000000000000000000000000000000602082015250565b5f6110a2602483610e18565b91506110ad82611048565b604082019050919050565b5f6020820190508181035f8301526110cf81611096565b9050919050565b7f4e487b71000000000000000000000000000000000000000000000000000000005f52601160045260245ffd5b5f61110d82610b54565b915061111883610b54565b92508282019050808211156111305761112f6110d6565b5b92915050565b7f4c6f616e206973206e6f742064756520796574000000000000000000000000005f82015250565b5f61116a601383610e18565b915061117582611136565b602082019050919050565b5f6020820190508181035f8301526111978161115e565b9050919050565b5f6040820190506111b15f830185610bb5565b6111be6020830184610b5d565b939250505056fea26469706673582212201432aaf047512296af720e911f179b67b9bae13e6bb4c91130e14e70c77c90e764736f6c63430008140033",
  "immutableReferences": {},
  "source": "// SPDX-License-Identifier: MIT\npragma solidity ^0.8.0;\n\nimport \"@openzeppelin/contracts/token/ERC20/IERC20.sol\";\nimport \"@openzeppelin/contracts/token/ERC721/IERC721.sol\";\nimport \"@openzeppelin/contracts/access/Ownable.sol\";\n\ncontract CollateralizedLending is Ownable {\n    IERC20 public token; // The ERC20 token contract\n    IERC721 public nftToken; // The NFT token contract\n\n    struct Loan {\n        address borrower;\n        uint256 nftId;\n        uint256 loanAmount;\n        uint256 duration; // Loan duration in seconds\n        uint256 startTime; // Loan start time\n    }\n\n    Loan[] public loans;\n\n    event LoanCreated(uint256 indexed loanId, address indexed borrower, uint256 indexed nftId, uint256 loanAmount);\n    event LoanRepaid(uint256 indexed loanId, address indexed borrower, uint256 loanAmount);\n\n    constructor(address _token, address _nftToken, address _initialOwner) Ownable(_initialOwner) {\n        token = IERC20(_token);\n        nftToken = IERC721(_nftToken);\n    }\n\n    function createLoan(uint256 _nftId, uint256 _loanAmount, uint256 _duration) external {\n        require(nftToken.ownerOf(_nftId) == msg.sender, \"You do not own this NFT\");\n        require(_loanAmount > 0, \"Loan amount must be greater than 0\");\n\n        // Transfer NFT from borrower to contract\n        nftToken.transferFrom(msg.sender, address(this), _nftId);\n\n        // Transfer loan Amount tokens from Owner to borrower\n        token.transferFrom(owner(), msg.sender, _loanAmount);\n\n        // Create a new loan\n        uint256 loanId = loans.length;\n        uint256 startTime = block.timestamp;\n        loans.push(Loan(msg.sender, _nftId, _loanAmount, _duration, startTime));\n\n        emit LoanCreated(loanId, msg.sender, _nftId, _loanAmount);\n    }\n\n    function repayLoan(uint256 _loanId) external {\n        require(_loanId < loans.length, \"Invalid loan ID\");\n        Loan storage loan = loans[_loanId];\n        require(msg.sender == loan.borrower, \"Only the borrower can repay the loan\");\n        require(block.timestamp >= loan.startTime + loan.duration, \"Loan is not due yet\");\n\n        // Transfer the collateral NFT back to the borrower\n        nftToken.transferFrom(address(this), msg.sender, loan.nftId);\n\n        // Transfer the loan amount plus interest (if any) to the contract owner\n        token.transfer(owner(), loan.loanAmount);\n\n        // Remove the loan entry\n        delete loans[_loanId];\n\n        emit LoanRepaid(_loanId, msg.sender, loan.loanAmount);\n    }\n\n    function getLoanCount() external view returns (uint256) {\n        return loans.length;\n    }\n}\n",
  "sourcePath": "/Users/master/Documents/PersonalDev/sideProjects/lending-platform/contracts/Lending.sol",
  "compiler": {
    "name": "solc",
    "version": "0.8.20+commit.a1b79de6.Emscripten.clang"
  },
  "schemaVersion": "3.4.16",
  "updatedAt": "2023-10-27T06:20:33.302Z",
  "devdoc": {
    "errors": {
      "OwnableInvalidOwner(address)": [
        {
          "details": "The owner is not a valid owner account. (eg. `address(0)`)"
        }
      ],
      "OwnableUnauthorizedAccount(address)": [
        {
          "details": "The caller account is not authorized to perform an operation."
        }
      ]
    },
    "kind": "dev",
    "methods": {
      "owner()": {
        "details": "Returns the address of the current owner."
      },
      "renounceOwnership()": {
        "details": "Leaves the contract without owner. It will not be possible to call `onlyOwner` functions. Can only be called by the current owner. NOTE: Renouncing ownership will leave the contract without an owner, thereby disabling any functionality that is only available to the owner."
      },
      "transferOwnership(address)": {
        "details": "Transfers ownership of the contract to a new account (`newOwner`). Can only be called by the current owner."
      }
    },
    "version": 1
  },
  "userdoc": {
    "kind": "user",
    "methods": {},
    "version": 1
  }
}