{
  "contractName": "CollateralizedNFTLending",
  "abi": [
    {
      "inputs": [
        {
          "internalType": "address",
          "name": "_token",
          "type": "address"
        }
      ],
      "stateMutability": "nonpayable",
      "type": "constructor"
    },
    {
      "anonymous": false,
      "inputs": [
        {
          "indexed": true,
          "internalType": "uint256",
          "name": "loanId",
          "type": "uint256"
        },
        {
          "indexed": true,
          "internalType": "address",
          "name": "borrower",
          "type": "address"
        },
        {
          "indexed": true,
          "internalType": "uint256",
          "name": "nftId",
          "type": "uint256"
        },
        {
          "indexed": false,
          "internalType": "uint256",
          "name": "loanAmount",
          "type": "uint256"
        }
      ],
      "name": "LoanCreated",
      "type": "event"
    },
    {
      "anonymous": false,
      "inputs": [
        {
          "indexed": true,
          "internalType": "uint256",
          "name": "loanId",
          "type": "uint256"
        },
        {
          "indexed": true,
          "internalType": "address",
          "name": "borrower",
          "type": "address"
        },
        {
          "indexed": false,
          "internalType": "uint256",
          "name": "loanAmount",
          "type": "uint256"
        }
      ],
      "name": "LoanRepaid",
      "type": "event"
    },
    {
      "anonymous": false,
      "inputs": [
        {
          "indexed": true,
          "internalType": "address",
          "name": "previousOwner",
          "type": "address"
        },
        {
          "indexed": true,
          "internalType": "address",
          "name": "newOwner",
          "type": "address"
        }
      ],
      "name": "OwnershipTransferred",
      "type": "event"
    },
    {
      "inputs": [
        {
          "internalType": "uint256",
          "name": "",
          "type": "uint256"
        }
      ],
      "name": "loans",
      "outputs": [
        {
          "internalType": "address",
          "name": "borrower",
          "type": "address"
        },
        {
          "internalType": "uint256",
          "name": "nftId",
          "type": "uint256"
        },
        {
          "internalType": "address",
          "name": "nftAddress",
          "type": "address"
        },
        {
          "internalType": "uint256",
          "name": "loanAmount",
          "type": "uint256"
        },
        {
          "internalType": "uint256",
          "name": "duration",
          "type": "uint256"
        },
        {
          "internalType": "uint256",
          "name": "startTime",
          "type": "uint256"
        }
      ],
      "stateMutability": "view",
      "type": "function",
      "constant": true
    },
    {
      "inputs": [],
      "name": "owner",
      "outputs": [
        {
          "internalType": "address",
          "name": "",
          "type": "address"
        }
      ],
      "stateMutability": "view",
      "type": "function",
      "constant": true
    },
    {
      "inputs": [],
      "name": "renounceOwnership",
      "outputs": [],
      "stateMutability": "nonpayable",
      "type": "function"
    },
    {
      "inputs": [],
      "name": "token",
      "outputs": [
        {
          "internalType": "contract IERC20",
          "name": "",
          "type": "address"
        }
      ],
      "stateMutability": "view",
      "type": "function",
      "constant": true
    },
    {
      "inputs": [
        {
          "internalType": "address",
          "name": "newOwner",
          "type": "address"
        }
      ],
      "name": "transferOwnership",
      "outputs": [],
      "stateMutability": "nonpayable",
      "type": "function"
    },
    {
      "inputs": [
        {
          "internalType": "uint256",
          "name": "_nftId",
          "type": "uint256"
        },
        {
          "internalType": "address",
          "name": "_nftAddress",
          "type": "address"
        },
        {
          "internalType": "uint256",
          "name": "_loanAmount",
          "type": "uint256"
        },
        {
          "internalType": "uint256",
          "name": "_duration",
          "type": "uint256"
        }
      ],
      "name": "createLoan",
      "outputs": [
        {
          "internalType": "uint256",
          "name": "",
          "type": "uint256"
        }
      ],
      "stateMutability": "nonpayable",
      "type": "function"
    },
    {
      "inputs": [
        {
          "internalType": "uint256",
          "name": "_loanId",
          "type": "uint256"
        }
      ],
      "name": "repayLoan",
      "outputs": [],
      "stateMutability": "nonpayable",
      "type": "function"
    },
    {
      "inputs": [],
      "name": "getLoanCount",
      "outputs": [
        {
          "internalType": "uint256",
          "name": "",
          "type": "uint256"
        }
      ],
      "stateMutability": "view",
      "type": "function",
      "constant": true
    }
  ],
  "bytecode": "0x60806040523480156200001157600080fd5b50604051620014e1380380620014e18339818101604052810190620000379190620001d5565b620000576200004b6200009f60201b60201c565b620000a760201b60201c565b80600160006101000a81548173ffffffffffffffffffffffffffffffffffffffff021916908373ffffffffffffffffffffffffffffffffffffffff1602179055505062000207565b600033905090565b60008060009054906101000a900473ffffffffffffffffffffffffffffffffffffffff169050816000806101000a81548173ffffffffffffffffffffffffffffffffffffffff021916908373ffffffffffffffffffffffffffffffffffffffff1602179055508173ffffffffffffffffffffffffffffffffffffffff168173ffffffffffffffffffffffffffffffffffffffff167f8be0079c531659141344cd1fd0a4f28419497f9722a3daafe3b4186f6b6457e060405160405180910390a35050565b600080fd5b600073ffffffffffffffffffffffffffffffffffffffff82169050919050565b60006200019d8262000170565b9050919050565b620001af8162000190565b8114620001bb57600080fd5b50565b600081519050620001cf81620001a4565b92915050565b600060208284031215620001ee57620001ed6200016b565b5b6000620001fe84828501620001be565b91505092915050565b6112ca80620002176000396000f3fe608060405234801561001057600080fd5b50600436106100885760003560e01c8063ab7b1c891161005b578063ab7b1c8914610103578063e1ec3c681461011f578063f2fde38b14610154578063fc0c546a1461017057610088565b80632829cec01461008d57806352196812146100bd578063715018a6146100db5780638da5cb5b146100e5575b600080fd5b6100a760048036038101906100a29190610c29565b61018e565b6040516100b49190610c9f565b60405180910390f35b6100c5610580565b6040516100d29190610c9f565b60405180910390f35b6100e361058d565b005b6100ed6105a1565b6040516100fa9190610cc9565b60405180910390f35b61011d60048036038101906101189190610ce4565b6105ca565b005b61013960048036038101906101349190610ce4565b610911565b60405161014b96959493929190610d11565b60405180910390f35b61016e60048036038101906101699190610d72565b61099d565b005b610178610a20565b6040516101859190610dfe565b60405180910390f35b6000808490503373ffffffffffffffffffffffffffffffffffffffff168173ffffffffffffffffffffffffffffffffffffffff16636352211e886040518263ffffffff1660e01b81526004016101e49190610c9f565b602060405180830381865afa158015610201573d6000803e3d6000fd5b505050506040513d601f19601f820116820180604052508101906102259190610e2e565b73ffffffffffffffffffffffffffffffffffffffff161461027b576040517f08c379a000000000000000000000000000000000000000000000000000000000815260040161027290610eb8565b60405180910390fd5b600084116102be576040517f08c379a00000000000000000000000000000000000000000000000000000000081526004016102b590610f4a565b60405180910390fd5b8073ffffffffffffffffffffffffffffffffffffffff166323b872dd3330896040518463ffffffff1660e01b81526004016102fb93929190610f6a565b600060405180830381600087803b15801561031557600080fd5b505af1158015610329573d6000803e3d6000fd5b50505050600160009054906101000a900473ffffffffffffffffffffffffffffffffffffffff1673ffffffffffffffffffffffffffffffffffffffff166323b872dd6103736105a1565b33876040518463ffffffff1660e01b815260040161039393929190610f6a565b6020604051808303816000875af11580156103b2573d6000803e3d6000fd5b505050506040513d601f19601f820116820180604052508101906103d69190610fd9565b5060006002805490509050600042905060026040518060c001604052803373ffffffffffffffffffffffffffffffffffffffff1681526020018a81526020018973ffffffffffffffffffffffffffffffffffffffff16815260200188815260200187815260200183815250908060018154018082558091505060019003906000526020600020906006020160009091909190915060008201518160000160006101000a81548173ffffffffffffffffffffffffffffffffffffffff021916908373ffffffffffffffffffffffffffffffffffffffff1602179055506020820151816001015560408201518160020160006101000a81548173ffffffffffffffffffffffffffffffffffffffff021916908373ffffffffffffffffffffffffffffffffffffffff160217905550606082015181600301556080820151816004015560a082015181600501555050873373ffffffffffffffffffffffffffffffffffffffff16837f3373919ad665425d2cddb4072830e5935b6ee308440fa99b23383648da473bc08960405161056a9190610c9f565b60405180910390a4819350505050949350505050565b6000600280549050905090565b610595610a46565b61059f6000610ac4565b565b60008060009054906101000a900473ffffffffffffffffffffffffffffffffffffffff16905090565b6002805490508110610611576040517f08c379a000000000000000000000000000000000000000000000000000000000815260040161060890611052565b60405180910390fd5b60006002828154811061062757610626611072565b5b906000526020600020906006020190508060000160009054906101000a900473ffffffffffffffffffffffffffffffffffffffff1673ffffffffffffffffffffffffffffffffffffffff163373ffffffffffffffffffffffffffffffffffffffff16146106c9576040517f08c379a00000000000000000000000000000000000000000000000000000000081526004016106c090611113565b60405180910390fd5b60008160020160009054906101000a900473ffffffffffffffffffffffffffffffffffffffff1690508073ffffffffffffffffffffffffffffffffffffffff166323b872dd303385600101546040518463ffffffff1660e01b815260040161073393929190610f6a565b600060405180830381600087803b15801561074d57600080fd5b505af1158015610761573d6000803e3d6000fd5b50505050600160009054906101000a900473ffffffffffffffffffffffffffffffffffffffff1673ffffffffffffffffffffffffffffffffffffffff166323b872dd336107ac6105a1565b670de0b6b3a764000086600301546107c49190611162565b6040518463ffffffff1660e01b81526004016107e293929190610f6a565b6020604051808303816000875af1158015610801573d6000803e3d6000fd5b505050506040513d601f19601f820116820180604052508101906108259190610fd9565b506002838154811061083a57610839611072565b5b9060005260206000209060060201600080820160006101000a81549073ffffffffffffffffffffffffffffffffffffffff021916905560018201600090556002820160006101000a81549073ffffffffffffffffffffffffffffffffffffffff021916905560038201600090556004820160009055600582016000905550503373ffffffffffffffffffffffffffffffffffffffff16837f512d3e65b3e58c2187bb1872aa435dba5bd09c1c03823ba56ab70aac411e4a2184600301546040516109049190610c9f565b60405180910390a3505050565b6002818154811061092157600080fd5b90600052602060002090600602016000915090508060000160009054906101000a900473ffffffffffffffffffffffffffffffffffffffff16908060010154908060020160009054906101000a900473ffffffffffffffffffffffffffffffffffffffff16908060030154908060040154908060050154905086565b6109a5610a46565b600073ffffffffffffffffffffffffffffffffffffffff168173ffffffffffffffffffffffffffffffffffffffff1603610a14576040517f08c379a0000000000000000000000000000000000000000000000000000000008152600401610a0b90611208565b60405180910390fd5b610a1d81610ac4565b50565b600160009054906101000a900473ffffffffffffffffffffffffffffffffffffffff1681565b610a4e610b88565b73ffffffffffffffffffffffffffffffffffffffff16610a6c6105a1565b73ffffffffffffffffffffffffffffffffffffffff1614610ac2576040517f08c379a0000000000000000000000000000000000000000000000000000000008152600401610ab990611274565b60405180910390fd5b565b60008060009054906101000a900473ffffffffffffffffffffffffffffffffffffffff169050816000806101000a81548173ffffffffffffffffffffffffffffffffffffffff021916908373ffffffffffffffffffffffffffffffffffffffff1602179055508173ffffffffffffffffffffffffffffffffffffffff168173ffffffffffffffffffffffffffffffffffffffff167f8be0079c531659141344cd1fd0a4f28419497f9722a3daafe3b4186f6b6457e060405160405180910390a35050565b600033905090565b600080fd5b6000819050919050565b610ba881610b95565b8114610bb357600080fd5b50565b600081359050610bc581610b9f565b92915050565b600073ffffffffffffffffffffffffffffffffffffffff82169050919050565b6000610bf682610bcb565b9050919050565b610c0681610beb565b8114610c1157600080fd5b50565b600081359050610c2381610bfd565b92915050565b60008060008060808587031215610c4357610c42610b90565b5b6000610c5187828801610bb6565b9450506020610c6287828801610c14565b9350506040610c7387828801610bb6565b9250506060610c8487828801610bb6565b91505092959194509250565b610c9981610b95565b82525050565b6000602082019050610cb46000830184610c90565b92915050565b610cc381610beb565b82525050565b6000602082019050610cde6000830184610cba565b92915050565b600060208284031215610cfa57610cf9610b90565b5b6000610d0884828501610bb6565b91505092915050565b600060c082019050610d266000830189610cba565b610d336020830188610c90565b610d406040830187610cba565b610d4d6060830186610c90565b610d5a6080830185610c90565b610d6760a0830184610c90565b979650505050505050565b600060208284031215610d8857610d87610b90565b5b6000610d9684828501610c14565b91505092915050565b6000819050919050565b6000610dc4610dbf610dba84610bcb565b610d9f565b610bcb565b9050919050565b6000610dd682610da9565b9050919050565b6000610de882610dcb565b9050919050565b610df881610ddd565b82525050565b6000602082019050610e136000830184610def565b92915050565b600081519050610e2881610bfd565b92915050565b600060208284031215610e4457610e43610b90565b5b6000610e5284828501610e19565b91505092915050565b600082825260208201905092915050565b7f596f7520646f206e6f74206f776e2074686973204e4654000000000000000000600082015250565b6000610ea2601783610e5b565b9150610ead82610e6c565b602082019050919050565b60006020820190508181036000830152610ed181610e95565b9050919050565b7f4c6f616e20616d6f756e74206d7573742062652067726561746572207468616e60008201527f2030000000000000000000000000000000000000000000000000000000000000602082015250565b6000610f34602283610e5b565b9150610f3f82610ed8565b604082019050919050565b60006020820190508181036000830152610f6381610f27565b9050919050565b6000606082019050610f7f6000830186610cba565b610f8c6020830185610cba565b610f996040830184610c90565b949350505050565b60008115159050919050565b610fb681610fa1565b8114610fc157600080fd5b50565b600081519050610fd381610fad565b92915050565b600060208284031215610fef57610fee610b90565b5b6000610ffd84828501610fc4565b91505092915050565b7f496e76616c6964206c6f616e2049440000000000000000000000000000000000600082015250565b600061103c600f83610e5b565b915061104782611006565b602082019050919050565b6000602082019050818103600083015261106b8161102f565b9050919050565b7f4e487b7100000000000000000000000000000000000000000000000000000000600052603260045260246000fd5b7f4f6e6c792074686520626f72726f7765722063616e207265706179207468652060008201527f6c6f616e00000000000000000000000000000000000000000000000000000000602082015250565b60006110fd602483610e5b565b9150611108826110a1565b604082019050919050565b6000602082019050818103600083015261112c816110f0565b9050919050565b7f4e487b7100000000000000000000000000000000000000000000000000000000600052601160045260246000fd5b600061116d82610b95565b915061117883610b95565b92508282019050808211156111905761118f611133565b5b92915050565b7f4f776e61626c653a206e6577206f776e657220697320746865207a65726f206160008201527f6464726573730000000000000000000000000000000000000000000000000000602082015250565b60006111f2602683610e5b565b91506111fd82611196565b604082019050919050565b60006020820190508181036000830152611221816111e5565b9050919050565b7f4f776e61626c653a2063616c6c6572206973206e6f7420746865206f776e6572600082015250565b600061125e602083610e5b565b915061126982611228565b602082019050919050565b6000602082019050818103600083015261128d81611251565b905091905056fea2646970667358221220b7967fdc755d5091e253d6d3b8a425395c224428790ad0018fb78f38a6c0f0d164736f6c63430008110033",
  "immutableReferences": {},
  "source": "// SPDX-License-Identifier: MIT\n// pragma solidity ^0.8.0;\npragma solidity ^0.8.8;\n\n\nimport \"@openzeppelin/contracts/token/ERC20/IERC20.sol\";\nimport \"@openzeppelin/contracts/token/ERC721/IERC721.sol\";\nimport \"@openzeppelin/contracts/access/Ownable.sol\";\n\ncontract CollateralizedNFTLending is Ownable {\n    IERC20 public token; // The ERC20 token contract\n\n    struct Loan {\n        address borrower;\n        uint256 nftId;\n        address nftAddress;\n        uint256 loanAmount;\n        uint256 duration; // Loan duration in seconds\n        uint256 startTime; // Loan start time\n    }\n\n    Loan[] public loans;\n\n    event LoanCreated(uint256 indexed loanId, address indexed borrower, uint256 indexed nftId, uint256 loanAmount);\n    event LoanRepaid(uint256 indexed loanId, address indexed borrower, uint256 loanAmount);\n\n    constructor(address _token) Ownable() {\n        token = IERC20(_token);\n    }\n\n    function createLoan(uint256 _nftId, address _nftAddress, uint256 _loanAmount, uint256 _duration) external returns(uint256) {\n        IERC721 nftToken = IERC721(_nftAddress);\n        \n        require(nftToken.ownerOf(_nftId) == msg.sender, \"You do not own this NFT\");\n\n        require(_loanAmount > 0, \"Loan amount must be greater than 0\");\n\n        \n        // Transfer NFT from borrower to contract\n        nftToken.transferFrom(msg.sender, address(this), _nftId);\n\n        // Transfer loan Amount tokens from Owner to borrower\n        token.transferFrom(owner(), msg.sender, _loanAmount);\n\n        // Create a new loan\n        uint256 loanId = loans.length;\n        uint256 startTime = block.timestamp;\n        loans.push(Loan(msg.sender, _nftId, _nftAddress, _loanAmount, _duration, startTime));\n\n        emit LoanCreated(loanId, msg.sender, _nftId, _loanAmount);\n\n        return loanId;\n    }\n\n    function repayLoan(uint256 _loanId) external {\n        require(_loanId < loans.length, \"Invalid loan ID\");\n        Loan storage loan = loans[_loanId];\n        require(msg.sender == loan.borrower, \"Only the borrower can repay the loan\");\n\n        IERC721 nftToken = IERC721(loan.nftAddress);\n\n        // Transfer the collateral NFT back to the borrower\n        nftToken.transferFrom(address(this), msg.sender, loan.nftId);\n\n        // Transfer the loan amount plus interest (if any) to the contract owner\n        // To repay the loan user must add 1 extra token\n        token.transferFrom(msg.sender, owner(), loan.loanAmount + 1000000000000000000);\n\n        // Remove the loan entry\n        delete loans[_loanId];\n\n        emit LoanRepaid(_loanId, msg.sender, loan.loanAmount);\n    }\n\n    function getLoanCount() external view returns (uint256) {\n        return loans.length;\n    }\n}\n",
  "sourcePath": "/Users/master/Documents/PersonalDev/sideProjects/lending-platform/contracts/CollateralizedNFTLending.sol",
  "compiler": {
    "name": "solc",
    "version": "0.8.17+commit.8df45f5f.Emscripten.clang"
  },
  "schemaVersion": "3.4.16",
  "updatedAt": "2023-10-30T07:09:41.802Z",
  "networkType": "ethereum",
  "devdoc": {
    "kind": "dev",
    "methods": {
      "owner()": {
        "details": "Returns the address of the current owner."
      },
      "renounceOwnership()": {
        "details": "Leaves the contract without owner. It will not be possible to call `onlyOwner` functions. Can only be called by the current owner. NOTE: Renouncing ownership will leave the contract without an owner, thereby disabling any functionality that is only available to the owner."
      },
      "transferOwnership(address)": {
        "details": "Transfers ownership of the contract to a new account (`newOwner`). Can only be called by the current owner."
      }
    },
    "version": 1
  },
  "userdoc": {
    "kind": "user",
    "methods": {},
    "version": 1
  }
}