{
  "contractName": "CollateralizedNFTLending",
  "abi": [
    {
      "inputs": [
        {
          "internalType": "address",
          "name": "_token",
          "type": "address"
        },
        {
          "internalType": "address",
          "name": "_nftToken",
          "type": "address"
        }
      ],
      "stateMutability": "nonpayable",
      "type": "constructor"
    },
    {
      "anonymous": false,
      "inputs": [
        {
          "indexed": true,
          "internalType": "uint256",
          "name": "loanId",
          "type": "uint256"
        },
        {
          "indexed": true,
          "internalType": "address",
          "name": "borrower",
          "type": "address"
        },
        {
          "indexed": true,
          "internalType": "uint256",
          "name": "nftId",
          "type": "uint256"
        },
        {
          "indexed": false,
          "internalType": "uint256",
          "name": "loanAmount",
          "type": "uint256"
        }
      ],
      "name": "LoanCreated",
      "type": "event"
    },
    {
      "anonymous": false,
      "inputs": [
        {
          "indexed": true,
          "internalType": "uint256",
          "name": "loanId",
          "type": "uint256"
        },
        {
          "indexed": true,
          "internalType": "address",
          "name": "borrower",
          "type": "address"
        },
        {
          "indexed": false,
          "internalType": "uint256",
          "name": "loanAmount",
          "type": "uint256"
        }
      ],
      "name": "LoanRepaid",
      "type": "event"
    },
    {
      "anonymous": false,
      "inputs": [
        {
          "indexed": true,
          "internalType": "address",
          "name": "previousOwner",
          "type": "address"
        },
        {
          "indexed": true,
          "internalType": "address",
          "name": "newOwner",
          "type": "address"
        }
      ],
      "name": "OwnershipTransferred",
      "type": "event"
    },
    {
      "inputs": [
        {
          "internalType": "uint256",
          "name": "",
          "type": "uint256"
        }
      ],
      "name": "loans",
      "outputs": [
        {
          "internalType": "address",
          "name": "borrower",
          "type": "address"
        },
        {
          "internalType": "uint256",
          "name": "nftId",
          "type": "uint256"
        },
        {
          "internalType": "uint256",
          "name": "loanAmount",
          "type": "uint256"
        },
        {
          "internalType": "uint256",
          "name": "duration",
          "type": "uint256"
        },
        {
          "internalType": "uint256",
          "name": "startTime",
          "type": "uint256"
        }
      ],
      "stateMutability": "view",
      "type": "function",
      "constant": true
    },
    {
      "inputs": [],
      "name": "nftToken",
      "outputs": [
        {
          "internalType": "contract IERC721",
          "name": "",
          "type": "address"
        }
      ],
      "stateMutability": "view",
      "type": "function",
      "constant": true
    },
    {
      "inputs": [],
      "name": "owner",
      "outputs": [
        {
          "internalType": "address",
          "name": "",
          "type": "address"
        }
      ],
      "stateMutability": "view",
      "type": "function",
      "constant": true
    },
    {
      "inputs": [],
      "name": "renounceOwnership",
      "outputs": [],
      "stateMutability": "nonpayable",
      "type": "function"
    },
    {
      "inputs": [],
      "name": "token",
      "outputs": [
        {
          "internalType": "contract IERC20",
          "name": "",
          "type": "address"
        }
      ],
      "stateMutability": "view",
      "type": "function",
      "constant": true
    },
    {
      "inputs": [
        {
          "internalType": "address",
          "name": "newOwner",
          "type": "address"
        }
      ],
      "name": "transferOwnership",
      "outputs": [],
      "stateMutability": "nonpayable",
      "type": "function"
    },
    {
      "inputs": [
        {
          "internalType": "uint256",
          "name": "_nftId",
          "type": "uint256"
        },
        {
          "internalType": "uint256",
          "name": "_loanAmount",
          "type": "uint256"
        },
        {
          "internalType": "uint256",
          "name": "_duration",
          "type": "uint256"
        }
      ],
      "name": "createLoan",
      "outputs": [],
      "stateMutability": "nonpayable",
      "type": "function"
    },
    {
      "inputs": [
        {
          "internalType": "uint256",
          "name": "_loanId",
          "type": "uint256"
        }
      ],
      "name": "repayLoan",
      "outputs": [],
      "stateMutability": "nonpayable",
      "type": "function"
    },
    {
      "inputs": [],
      "name": "getLoanCount",
      "outputs": [
        {
          "internalType": "uint256",
          "name": "",
          "type": "uint256"
        }
      ],
      "stateMutability": "view",
      "type": "function",
      "constant": true
    }
  ],
  "bytecode": "0x60806040523480156200001157600080fd5b50604051620015e1380380620015e1833981810160405281019062000037919062000217565b620000576200004b620000e160201b60201c565b620000e960201b60201c565b81600160006101000a81548173ffffffffffffffffffffffffffffffffffffffff021916908373ffffffffffffffffffffffffffffffffffffffff16021790555080600260006101000a81548173ffffffffffffffffffffffffffffffffffffffff021916908373ffffffffffffffffffffffffffffffffffffffff16021790555050506200025e565b600033905090565b60008060009054906101000a900473ffffffffffffffffffffffffffffffffffffffff169050816000806101000a81548173ffffffffffffffffffffffffffffffffffffffff021916908373ffffffffffffffffffffffffffffffffffffffff1602179055508173ffffffffffffffffffffffffffffffffffffffff168173ffffffffffffffffffffffffffffffffffffffff167f8be0079c531659141344cd1fd0a4f28419497f9722a3daafe3b4186f6b6457e060405160405180910390a35050565b600080fd5b600073ffffffffffffffffffffffffffffffffffffffff82169050919050565b6000620001df82620001b2565b9050919050565b620001f181620001d2565b8114620001fd57600080fd5b50565b6000815190506200021181620001e6565b92915050565b60008060408385031215620002315762000230620001ad565b5b6000620002418582860162000200565b9250506020620002548582860162000200565b9150509250929050565b611373806200026e6000396000f3fe608060405234801561001057600080fd5b50600436106100935760003560e01c8063ab7b1c8911610066578063ab7b1c89146100fa578063d06fcba814610116578063e1ec3c6814610134578063f2fde38b14610168578063fc0c546a1461018457610093565b80635219681214610098578063715018a6146100b65780638da5cb5b146100c0578063904b513b146100de575b600080fd5b6100a06101a2565b6040516100ad9190610ba3565b60405180910390f35b6100be6101af565b005b6100c86101c3565b6040516100d59190610bff565b60405180910390f35b6100f860048036038101906100f39190610c4b565b6101ec565b005b610114600480360381019061010f9190610c9e565b6105b2565b005b61011e61090b565b60405161012b9190610d2a565b60405180910390f35b61014e60048036038101906101499190610c9e565b610931565b60405161015f959493929190610d45565b60405180910390f35b610182600480360381019061017d9190610dc4565b610997565b005b61018c610a1a565b6040516101999190610e12565b60405180910390f35b6000600380549050905090565b6101b7610a40565b6101c16000610abe565b565b60008060009054906101000a900473ffffffffffffffffffffffffffffffffffffffff16905090565b3373ffffffffffffffffffffffffffffffffffffffff16600260009054906101000a900473ffffffffffffffffffffffffffffffffffffffff1673ffffffffffffffffffffffffffffffffffffffff16636352211e856040518263ffffffff1660e01b815260040161025e9190610ba3565b602060405180830381865afa15801561027b573d6000803e3d6000fd5b505050506040513d601f19601f8201168201806040525081019061029f9190610e42565b73ffffffffffffffffffffffffffffffffffffffff16146102f5576040517f08c379a00000000000000000000000000000000000000000000000000000000081526004016102ec90610ecc565b60405180910390fd5b60008211610338576040517f08c379a000000000000000000000000000000000000000000000000000000000815260040161032f90610f5e565b60405180910390fd5b600260009054906101000a900473ffffffffffffffffffffffffffffffffffffffff1673ffffffffffffffffffffffffffffffffffffffff166323b872dd3330866040518463ffffffff1660e01b815260040161039793929190610f7e565b600060405180830381600087803b1580156103b157600080fd5b505af11580156103c5573d6000803e3d6000fd5b50505050600160009054906101000a900473ffffffffffffffffffffffffffffffffffffffff1673ffffffffffffffffffffffffffffffffffffffff166323b872dd61040f6101c3565b33856040518463ffffffff1660e01b815260040161042f93929190610f7e565b6020604051808303816000875af115801561044e573d6000803e3d6000fd5b505050506040513d601f19601f820116820180604052508101906104729190610fed565b5060006003805490509050600042905060036040518060a001604052803373ffffffffffffffffffffffffffffffffffffffff16815260200187815260200186815260200185815260200183815250908060018154018082558091505060019003906000526020600020906005020160009091909190915060008201518160000160006101000a81548173ffffffffffffffffffffffffffffffffffffffff021916908373ffffffffffffffffffffffffffffffffffffffff160217905550602082015181600101556040820151816002015560608201518160030155608082015181600401555050843373ffffffffffffffffffffffffffffffffffffffff16837f3373919ad665425d2cddb4072830e5935b6ee308440fa99b23383648da473bc0876040516105a39190610ba3565b60405180910390a45050505050565b60038054905081106105f9576040517f08c379a00000000000000000000000000000000000000000000000000000000081526004016105f090611066565b60405180910390fd5b60006003828154811061060f5761060e611086565b5b906000526020600020906005020190508060000160009054906101000a900473ffffffffffffffffffffffffffffffffffffffff1673ffffffffffffffffffffffffffffffffffffffff163373ffffffffffffffffffffffffffffffffffffffff16146106b1576040517f08c379a00000000000000000000000000000000000000000000000000000000081526004016106a890611127565b60405180910390fd5b806003015481600401546106c59190611176565b421015610707576040517f08c379a00000000000000000000000000000000000000000000000000000000081526004016106fe906111f6565b60405180910390fd5b600260009054906101000a900473ffffffffffffffffffffffffffffffffffffffff1673ffffffffffffffffffffffffffffffffffffffff166323b872dd303384600101546040518463ffffffff1660e01b815260040161076a93929190610f7e565b600060405180830381600087803b15801561078457600080fd5b505af1158015610798573d6000803e3d6000fd5b50505050600160009054906101000a900473ffffffffffffffffffffffffffffffffffffffff1673ffffffffffffffffffffffffffffffffffffffff1663a9059cbb6107e26101c3565b83600201546040518363ffffffff1660e01b8152600401610804929190611216565b6020604051808303816000875af1158015610823573d6000803e3d6000fd5b505050506040513d601f19601f820116820180604052508101906108479190610fed565b506003828154811061085c5761085b611086565b5b9060005260206000209060050201600080820160006101000a81549073ffffffffffffffffffffffffffffffffffffffff0219169055600182016000905560028201600090556003820160009055600482016000905550503373ffffffffffffffffffffffffffffffffffffffff16827f512d3e65b3e58c2187bb1872aa435dba5bd09c1c03823ba56ab70aac411e4a2183600201546040516108ff9190610ba3565b60405180910390a35050565b600260009054906101000a900473ffffffffffffffffffffffffffffffffffffffff1681565b6003818154811061094157600080fd5b90600052602060002090600502016000915090508060000160009054906101000a900473ffffffffffffffffffffffffffffffffffffffff16908060010154908060020154908060030154908060040154905085565b61099f610a40565b600073ffffffffffffffffffffffffffffffffffffffff168173ffffffffffffffffffffffffffffffffffffffff1603610a0e576040517f08c379a0000000000000000000000000000000000000000000000000000000008152600401610a05906112b1565b60405180910390fd5b610a1781610abe565b50565b600160009054906101000a900473ffffffffffffffffffffffffffffffffffffffff1681565b610a48610b82565b73ffffffffffffffffffffffffffffffffffffffff16610a666101c3565b73ffffffffffffffffffffffffffffffffffffffff1614610abc576040517f08c379a0000000000000000000000000000000000000000000000000000000008152600401610ab39061131d565b60405180910390fd5b565b60008060009054906101000a900473ffffffffffffffffffffffffffffffffffffffff169050816000806101000a81548173ffffffffffffffffffffffffffffffffffffffff021916908373ffffffffffffffffffffffffffffffffffffffff1602179055508173ffffffffffffffffffffffffffffffffffffffff168173ffffffffffffffffffffffffffffffffffffffff167f8be0079c531659141344cd1fd0a4f28419497f9722a3daafe3b4186f6b6457e060405160405180910390a35050565b600033905090565b6000819050919050565b610b9d81610b8a565b82525050565b6000602082019050610bb86000830184610b94565b92915050565b600073ffffffffffffffffffffffffffffffffffffffff82169050919050565b6000610be982610bbe565b9050919050565b610bf981610bde565b82525050565b6000602082019050610c146000830184610bf0565b92915050565b600080fd5b610c2881610b8a565b8114610c3357600080fd5b50565b600081359050610c4581610c1f565b92915050565b600080600060608486031215610c6457610c63610c1a565b5b6000610c7286828701610c36565b9350506020610c8386828701610c36565b9250506040610c9486828701610c36565b9150509250925092565b600060208284031215610cb457610cb3610c1a565b5b6000610cc284828501610c36565b91505092915050565b6000819050919050565b6000610cf0610ceb610ce684610bbe565b610ccb565b610bbe565b9050919050565b6000610d0282610cd5565b9050919050565b6000610d1482610cf7565b9050919050565b610d2481610d09565b82525050565b6000602082019050610d3f6000830184610d1b565b92915050565b600060a082019050610d5a6000830188610bf0565b610d676020830187610b94565b610d746040830186610b94565b610d816060830185610b94565b610d8e6080830184610b94565b9695505050505050565b610da181610bde565b8114610dac57600080fd5b50565b600081359050610dbe81610d98565b92915050565b600060208284031215610dda57610dd9610c1a565b5b6000610de884828501610daf565b91505092915050565b6000610dfc82610cf7565b9050919050565b610e0c81610df1565b82525050565b6000602082019050610e276000830184610e03565b92915050565b600081519050610e3c81610d98565b92915050565b600060208284031215610e5857610e57610c1a565b5b6000610e6684828501610e2d565b91505092915050565b600082825260208201905092915050565b7f596f7520646f206e6f74206f776e2074686973204e4654000000000000000000600082015250565b6000610eb6601783610e6f565b9150610ec182610e80565b602082019050919050565b60006020820190508181036000830152610ee581610ea9565b9050919050565b7f4c6f616e20616d6f756e74206d7573742062652067726561746572207468616e60008201527f2030000000000000000000000000000000000000000000000000000000000000602082015250565b6000610f48602283610e6f565b9150610f5382610eec565b604082019050919050565b60006020820190508181036000830152610f7781610f3b565b9050919050565b6000606082019050610f936000830186610bf0565b610fa06020830185610bf0565b610fad6040830184610b94565b949350505050565b60008115159050919050565b610fca81610fb5565b8114610fd557600080fd5b50565b600081519050610fe781610fc1565b92915050565b60006020828403121561100357611002610c1a565b5b600061101184828501610fd8565b91505092915050565b7f496e76616c6964206c6f616e2049440000000000000000000000000000000000600082015250565b6000611050600f83610e6f565b915061105b8261101a565b602082019050919050565b6000602082019050818103600083015261107f81611043565b9050919050565b7f4e487b7100000000000000000000000000000000000000000000000000000000600052603260045260246000fd5b7f4f6e6c792074686520626f72726f7765722063616e207265706179207468652060008201527f6c6f616e00000000000000000000000000000000000000000000000000000000602082015250565b6000611111602483610e6f565b915061111c826110b5565b604082019050919050565b6000602082019050818103600083015261114081611104565b9050919050565b7f4e487b7100000000000000000000000000000000000000000000000000000000600052601160045260246000fd5b600061118182610b8a565b915061118c83610b8a565b92508282019050808211156111a4576111a3611147565b5b92915050565b7f4c6f616e206973206e6f74206475652079657400000000000000000000000000600082015250565b60006111e0601383610e6f565b91506111eb826111aa565b602082019050919050565b6000602082019050818103600083015261120f816111d3565b9050919050565b600060408201905061122b6000830185610bf0565b6112386020830184610b94565b9392505050565b7f4f776e61626c653a206e6577206f776e657220697320746865207a65726f206160008201527f6464726573730000000000000000000000000000000000000000000000000000602082015250565b600061129b602683610e6f565b91506112a68261123f565b604082019050919050565b600060208201905081810360008301526112ca8161128e565b9050919050565b7f4f776e61626c653a2063616c6c6572206973206e6f7420746865206f776e6572600082015250565b6000611307602083610e6f565b9150611312826112d1565b602082019050919050565b60006020820190508181036000830152611336816112fa565b905091905056fea26469706673582212206f1ec58949137fa77cde9115447031ce2a52cba7c7cb649e1bf8d0383309b47764736f6c63430008110033",
  "immutableReferences": {},
  "source": "// SPDX-License-Identifier: MIT\n// pragma solidity ^0.8.0;\npragma solidity ^0.8.8;\n\n\nimport \"@openzeppelin/contracts/token/ERC20/IERC20.sol\";\nimport \"@openzeppelin/contracts/token/ERC721/IERC721.sol\";\nimport \"@openzeppelin/contracts/access/Ownable.sol\";\n\ncontract CollateralizedNFTLending is Ownable {\n    IERC20 public token; // The ERC20 token contract\n    IERC721 public nftToken; // The NFT token contract\n\n    struct Loan {\n        address borrower;\n        uint256 nftId;\n        uint256 loanAmount;\n        uint256 duration; // Loan duration in seconds\n        uint256 startTime; // Loan start time\n    }\n\n    Loan[] public loans;\n\n    event LoanCreated(uint256 indexed loanId, address indexed borrower, uint256 indexed nftId, uint256 loanAmount);\n    event LoanRepaid(uint256 indexed loanId, address indexed borrower, uint256 loanAmount);\n\n    constructor(address _token, address _nftToken) Ownable() {\n        token = IERC20(_token);\n        nftToken = IERC721(_nftToken);\n    }\n\n    function createLoan(uint256 _nftId, uint256 _loanAmount, uint256 _duration) external {\n        require(nftToken.ownerOf(_nftId) == msg.sender, \"You do not own this NFT\");\n        require(_loanAmount > 0, \"Loan amount must be greater than 0\");\n\n        // Transfer NFT from borrower to contract\n        nftToken.transferFrom(msg.sender, address(this), _nftId);\n\n        // Transfer loan Amount tokens from Owner to borrower\n        token.transferFrom(owner(), msg.sender, _loanAmount);\n\n        // Create a new loan\n        uint256 loanId = loans.length;\n        uint256 startTime = block.timestamp;\n        loans.push(Loan(msg.sender, _nftId, _loanAmount, _duration, startTime));\n\n        emit LoanCreated(loanId, msg.sender, _nftId, _loanAmount);\n    }\n\n    function repayLoan(uint256 _loanId) external {\n        require(_loanId < loans.length, \"Invalid loan ID\");\n        Loan storage loan = loans[_loanId];\n        require(msg.sender == loan.borrower, \"Only the borrower can repay the loan\");\n        require(block.timestamp >= loan.startTime + loan.duration, \"Loan is not due yet\");\n\n        // Transfer the collateral NFT back to the borrower\n        nftToken.transferFrom(address(this), msg.sender, loan.nftId);\n\n        // Transfer the loan amount plus interest (if any) to the contract owner\n        token.transfer(owner(), loan.loanAmount);\n\n        // Remove the loan entry\n        delete loans[_loanId];\n\n        emit LoanRepaid(_loanId, msg.sender, loan.loanAmount);\n    }\n\n    function getLoanCount() external view returns (uint256) {\n        return loans.length;\n    }\n}\n",
  "sourcePath": "/Users/master/Documents/PersonalDev/sideProjects/lending-platform/contracts/CollateralizedNFTLending.sol",
  "compiler": {
    "name": "solc",
    "version": "0.8.17+commit.8df45f5f.Emscripten.clang"
  },
  "schemaVersion": "3.4.16",
  "updatedAt": "2023-10-28T06:52:43.439Z",
  "networkType": "ethereum",
  "devdoc": {
    "kind": "dev",
    "methods": {
      "owner()": {
        "details": "Returns the address of the current owner."
      },
      "renounceOwnership()": {
        "details": "Leaves the contract without owner. It will not be possible to call `onlyOwner` functions. Can only be called by the current owner. NOTE: Renouncing ownership will leave the contract without an owner, thereby disabling any functionality that is only available to the owner."
      },
      "transferOwnership(address)": {
        "details": "Transfers ownership of the contract to a new account (`newOwner`). Can only be called by the current owner."
      }
    },
    "version": 1
  },
  "userdoc": {
    "kind": "user",
    "methods": {},
    "version": 1
  }
}